{
  "_format": "hh-sol-artifact-1",
  "contractName": "WarrantyNFTs",
  "sourceName": "contracts/WarrantyNFTs.sol",
  "abi": [
    {
      "inputs": [],
      "stateMutability": "nonpayable",
      "type": "constructor"
    },
    {
      "anonymous": false,
      "inputs": [
        {
          "indexed": true,
          "internalType": "address",
          "name": "owner",
          "type": "address"
        },
        {
          "indexed": true,
          "internalType": "address",
          "name": "approved",
          "type": "address"
        },
        {
          "indexed": true,
          "internalType": "uint256",
          "name": "tokenId",
          "type": "uint256"
        }
      ],
      "name": "Approval",
      "type": "event"
    },
    {
      "anonymous": false,
      "inputs": [
        {
          "indexed": true,
          "internalType": "address",
          "name": "owner",
          "type": "address"
        },
        {
          "indexed": true,
          "internalType": "address",
          "name": "operator",
          "type": "address"
        },
        {
          "indexed": false,
          "internalType": "bool",
          "name": "approved",
          "type": "bool"
        }
      ],
      "name": "ApprovalForAll",
      "type": "event"
    },
    {
      "anonymous": false,
      "inputs": [
        {
          "indexed": true,
          "internalType": "address",
          "name": "from",
          "type": "address"
        },
        {
          "indexed": true,
          "internalType": "address",
          "name": "to",
          "type": "address"
        },
        {
          "indexed": true,
          "internalType": "uint256",
          "name": "tokenId",
          "type": "uint256"
        }
      ],
      "name": "Transfer",
      "type": "event"
    },
    {
      "inputs": [
        {
          "internalType": "string",
          "name": "_name",
          "type": "string"
        },
        {
          "internalType": "string",
          "name": "_email",
          "type": "string"
        }
      ],
      "name": "addCustomer",
      "outputs": [],
      "stateMutability": "nonpayable",
      "type": "function"
    },
    {
      "inputs": [
        {
          "internalType": "string",
          "name": "_name",
          "type": "string"
        },
        {
          "internalType": "string",
          "name": "_description",
          "type": "string"
        },
        {
          "internalType": "string",
          "name": "_imageURI",
          "type": "string"
        },
        {
          "internalType": "uint32",
          "name": "_baseWarranty",
          "type": "uint32"
        },
        {
          "internalType": "uint32",
          "name": "_loyaltyLimit",
          "type": "uint32"
        },
        {
          "internalType": "uint32",
          "name": "_loyaltyPoints",
          "type": "uint32"
        },
        {
          "internalType": "uint32",
          "name": "_timePeriod",
          "type": "uint32"
        },
        {
          "internalType": "bool",
          "name": "_soulBound",
          "type": "bool"
        }
      ],
      "name": "addItem",
      "outputs": [],
      "stateMutability": "nonpayable",
      "type": "function"
    },
    {
      "inputs": [
        {
          "internalType": "string",
          "name": "_name",
          "type": "string"
        },
        {
          "internalType": "string",
          "name": "_email",
          "type": "string"
        }
      ],
      "name": "addMerchant",
      "outputs": [],
      "stateMutability": "nonpayable",
      "type": "function"
    },
    {
      "inputs": [
        {
          "internalType": "address",
          "name": "to",
          "type": "address"
        },
        {
          "internalType": "uint256",
          "name": "tokenId",
          "type": "uint256"
        }
      ],
      "name": "approve",
      "outputs": [],
      "stateMutability": "nonpayable",
      "type": "function"
    },
    {
      "inputs": [
        {
          "internalType": "address",
          "name": "owner",
          "type": "address"
        }
      ],
      "name": "balanceOf",
      "outputs": [
        {
          "internalType": "uint256",
          "name": "",
          "type": "uint256"
        }
      ],
      "stateMutability": "view",
      "type": "function"
    },
    {
      "inputs": [
        {
          "internalType": "address",
          "name": "_to",
          "type": "address"
        }
      ],
      "name": "calculateLoyaltyPoints",
      "outputs": [
        {
          "internalType": "uint32",
          "name": "",
          "type": "uint32"
        }
      ],
      "stateMutability": "view",
      "type": "function"
    },
    {
      "inputs": [
        {
          "internalType": "string",
          "name": "_name",
          "type": "string"
        },
        {
          "internalType": "string",
          "name": "_email",
          "type": "string"
        }
      ],
      "name": "editCustomer",
      "outputs": [],
      "stateMutability": "nonpayable",
      "type": "function"
    },
    {
      "inputs": [
        {
          "internalType": "string",
          "name": "_name",
          "type": "string"
        },
        {
          "internalType": "string",
          "name": "_email",
          "type": "string"
        }
      ],
      "name": "editMerchant",
      "outputs": [],
      "stateMutability": "nonpayable",
      "type": "function"
    },
    {
      "inputs": [
        {
          "internalType": "uint32",
          "name": "_warrantyId",
          "type": "uint32"
        },
        {
          "internalType": "string",
          "name": "_repairStatus",
          "type": "string"
        }
      ],
      "name": "editWarranty",
      "outputs": [],
      "stateMutability": "nonpayable",
      "type": "function"
    },
    {
      "inputs": [
        {
          "internalType": "uint256",
          "name": "tokenId",
          "type": "uint256"
        }
      ],
      "name": "getApproved",
      "outputs": [
        {
          "internalType": "address",
          "name": "",
          "type": "address"
        }
      ],
      "stateMutability": "view",
      "type": "function"
    },
    {
      "inputs": [
        {
          "internalType": "address",
          "name": "_customerAddress",
          "type": "address"
        }
      ],
      "name": "getCustomer",
      "outputs": [
        {
          "components": [
            {
              "internalType": "string",
              "name": "name",
              "type": "string"
            },
            {
              "internalType": "string",
              "name": "email",
              "type": "string"
            }
          ],
          "internalType": "struct Users.Customer",
          "name": "",
          "type": "tuple"
        }
      ],
      "stateMutability": "view",
      "type": "function"
    },
    {
      "inputs": [
        {
          "internalType": "uint32",
          "name": "_itemId",
          "type": "uint32"
        }
      ],
      "name": "getItem",
      "outputs": [
        {
          "components": [
            {
              "internalType": "address",
              "name": "merchantAddress",
              "type": "address"
            },
            {
              "internalType": "string",
              "name": "name",
              "type": "string"
            },
            {
              "internalType": "string",
              "name": "description",
              "type": "string"
            },
            {
              "internalType": "string",
              "name": "imageURI",
              "type": "string"
            },
            {
              "internalType": "uint32",
              "name": "baseWarranty",
              "type": "uint32"
            },
            {
              "internalType": "uint32",
              "name": "loyaltyLimit",
              "type": "uint32"
            },
            {
              "internalType": "uint32",
              "name": "loyaltyPoints",
              "type": "uint32"
            },
            {
              "internalType": "uint32",
              "name": "timePeriod",
              "type": "uint32"
            },
            {
              "internalType": "bool",
              "name": "soulBound",
              "type": "bool"
            }
          ],
          "internalType": "struct Items.Item",
          "name": "item",
          "type": "tuple"
        }
      ],
      "stateMutability": "view",
      "type": "function"
    },
    {
      "inputs": [
        {
          "internalType": "address",
          "name": "_merchantAddress",
          "type": "address"
        }
      ],
      "name": "getMerchant",
      "outputs": [
        {
          "components": [
            {
              "internalType": "string",
              "name": "name",
              "type": "string"
            },
            {
              "internalType": "string",
              "name": "email",
              "type": "string"
            }
          ],
          "internalType": "struct Users.Merchant",
          "name": "",
          "type": "tuple"
        }
      ],
      "stateMutability": "view",
      "type": "function"
    },
    {
      "inputs": [],
      "name": "getMerchantWarranties",
      "outputs": [
        {
          "components": [
            {
              "internalType": "string",
              "name": "serialNumber",
              "type": "string"
            },
            {
              "internalType": "string",
              "name": "repairStatus",
              "type": "string"
            },
            {
              "internalType": "uint32",
              "name": "itemId",
              "type": "uint32"
            },
            {
              "internalType": "uint32",
              "name": "purchaseDate",
              "type": "uint32"
            },
            {
              "internalType": "uint32",
              "name": "warranty",
              "type": "uint32"
            },
            {
              "internalType": "uint32",
              "name": "loyaltyLimit",
              "type": "uint32"
            },
            {
              "internalType": "uint32",
              "name": "loyaltyPoints",
              "type": "uint32"
            },
            {
              "internalType": "bool",
              "name": "soulBound",
              "type": "bool"
            }
          ],
          "internalType": "struct WarrantyNFTs.Warranty[]",
          "name": "",
          "type": "tuple[]"
        }
      ],
      "stateMutability": "view",
      "type": "function"
    },
    {
      "inputs": [],
      "name": "getMyItems",
      "outputs": [
        {
          "components": [
            {
              "internalType": "address",
              "name": "merchantAddress",
              "type": "address"
            },
            {
              "internalType": "string",
              "name": "name",
              "type": "string"
            },
            {
              "internalType": "string",
              "name": "description",
              "type": "string"
            },
            {
              "internalType": "string",
              "name": "imageURI",
              "type": "string"
            },
            {
              "internalType": "uint32",
              "name": "baseWarranty",
              "type": "uint32"
            },
            {
              "internalType": "uint32",
              "name": "loyaltyLimit",
              "type": "uint32"
            },
            {
              "internalType": "uint32",
              "name": "loyaltyPoints",
              "type": "uint32"
            },
            {
              "internalType": "uint32",
              "name": "timePeriod",
              "type": "uint32"
            },
            {
              "internalType": "bool",
              "name": "soulBound",
              "type": "bool"
            }
          ],
          "internalType": "struct Items.Item[]",
          "name": "",
          "type": "tuple[]"
        }
      ],
      "stateMutability": "view",
      "type": "function"
    },
    {
      "inputs": [],
      "name": "getMyWarranties",
      "outputs": [
        {
          "components": [
            {
              "internalType": "string",
              "name": "serialNumber",
              "type": "string"
            },
            {
              "internalType": "string",
              "name": "repairStatus",
              "type": "string"
            },
            {
              "internalType": "uint32",
              "name": "itemId",
              "type": "uint32"
            },
            {
              "internalType": "uint32",
              "name": "purchaseDate",
              "type": "uint32"
            },
            {
              "internalType": "uint32",
              "name": "warranty",
              "type": "uint32"
            },
            {
              "internalType": "uint32",
              "name": "loyaltyLimit",
              "type": "uint32"
            },
            {
              "internalType": "uint32",
              "name": "loyaltyPoints",
              "type": "uint32"
            },
            {
              "internalType": "bool",
              "name": "soulBound",
              "type": "bool"
            }
          ],
          "internalType": "struct WarrantyNFTs.Warranty[]",
          "name": "",
          "type": "tuple[]"
        }
      ],
      "stateMutability": "view",
      "type": "function"
    },
    {
      "inputs": [
        {
          "internalType": "address",
          "name": "owner",
          "type": "address"
        },
        {
          "internalType": "address",
          "name": "operator",
          "type": "address"
        }
      ],
      "name": "isApprovedForAll",
      "outputs": [
        {
          "internalType": "bool",
          "name": "",
          "type": "bool"
        }
      ],
      "stateMutability": "view",
      "type": "function"
    },
    {
      "inputs": [],
      "name": "name",
      "outputs": [
        {
          "internalType": "string",
          "name": "",
          "type": "string"
        }
      ],
      "stateMutability": "view",
      "type": "function"
    },
    {
      "inputs": [
        {
          "internalType": "uint256",
          "name": "tokenId",
          "type": "uint256"
        }
      ],
      "name": "ownerOf",
      "outputs": [
        {
          "internalType": "address",
          "name": "",
          "type": "address"
        }
      ],
      "stateMutability": "view",
      "type": "function"
    },
    {
      "inputs": [
        {
          "internalType": "address",
          "name": "_to",
          "type": "address"
        },
        {
          "internalType": "string",
          "name": "_serialNumber",
          "type": "string"
        },
        {
          "internalType": "uint32",
          "name": "_itemId",
          "type": "uint32"
        }
      ],
      "name": "safeMint",
      "outputs": [],
      "stateMutability": "nonpayable",
      "type": "function"
    },
    {
      "inputs": [
        {
          "internalType": "address",
          "name": "from",
          "type": "address"
        },
        {
          "internalType": "address",
          "name": "to",
          "type": "address"
        },
        {
          "internalType": "uint256",
          "name": "tokenId",
          "type": "uint256"
        }
      ],
      "name": "safeTransferFrom",
      "outputs": [],
      "stateMutability": "nonpayable",
      "type": "function"
    },
    {
      "inputs": [
        {
          "internalType": "address",
          "name": "from",
          "type": "address"
        },
        {
          "internalType": "address",
          "name": "to",
          "type": "address"
        },
        {
          "internalType": "uint256",
          "name": "tokenId",
          "type": "uint256"
        },
        {
          "internalType": "bytes",
          "name": "data",
          "type": "bytes"
        }
      ],
      "name": "safeTransferFrom",
      "outputs": [],
      "stateMutability": "nonpayable",
      "type": "function"
    },
    {
      "inputs": [
        {
          "internalType": "address",
          "name": "operator",
          "type": "address"
        },
        {
          "internalType": "bool",
          "name": "approved",
          "type": "bool"
        }
      ],
      "name": "setApprovalForAll",
      "outputs": [],
      "stateMutability": "nonpayable",
      "type": "function"
    },
    {
      "inputs": [
        {
          "internalType": "bytes4",
          "name": "interfaceId",
          "type": "bytes4"
        }
      ],
      "name": "supportsInterface",
      "outputs": [
        {
          "internalType": "bool",
          "name": "",
          "type": "bool"
        }
      ],
      "stateMutability": "view",
      "type": "function"
    },
    {
      "inputs": [],
      "name": "symbol",
      "outputs": [
        {
          "internalType": "string",
          "name": "",
          "type": "string"
        }
      ],
      "stateMutability": "view",
      "type": "function"
    },
    {
      "inputs": [
        {
          "internalType": "uint256",
          "name": "tokenId",
          "type": "uint256"
        }
      ],
      "name": "tokenURI",
      "outputs": [
        {
          "internalType": "string",
          "name": "",
          "type": "string"
        }
      ],
      "stateMutability": "view",
      "type": "function"
    },
    {
      "inputs": [
        {
          "internalType": "address",
          "name": "from",
          "type": "address"
        },
        {
          "internalType": "address",
          "name": "to",
          "type": "address"
        },
        {
          "internalType": "uint256",
          "name": "tokenId",
          "type": "uint256"
        }
      ],
      "name": "transferFrom",
      "outputs": [],
      "stateMutability": "nonpayable",
      "type": "function"
    },
    {
      "inputs": [
        {
          "internalType": "uint256",
          "name": "tokenId",
          "type": "uint256"
        }
      ],
      "name": "warrantyRemaining",
      "outputs": [
        {
          "internalType": "uint32",
          "name": "remainingTime",
          "type": "uint32"
        }
      ],
      "stateMutability": "view",
      "type": "function"
    }
  ],
  "bytecode": "0x60806040523480156200001157600080fd5b506040518060400160405280600f81526020017f5465737457617272616e74794e465400000000000000000000000000000000008152506040518060400160405280600581526020017f54574e465400000000000000000000000000000000000000000000000000000081525081600090816200008f919062000324565b508060019081620000a1919062000324565b5050506200040b565b600081519050919050565b7f4e487b7100000000000000000000000000000000000000000000000000000000600052604160045260246000fd5b7f4e487b7100000000000000000000000000000000000000000000000000000000600052602260045260246000fd5b600060028204905060018216806200012c57607f821691505b602082108103620001425762000141620000e4565b5b50919050565b60008190508160005260206000209050919050565b60006020601f8301049050919050565b600082821b905092915050565b600060088302620001ac7fffffffffffffffffffffffffffffffffffffffffffffffffffffffffffffffff826200016d565b620001b886836200016d565b95508019841693508086168417925050509392505050565b6000819050919050565b6000819050919050565b600062000205620001ff620001f984620001d0565b620001da565b620001d0565b9050919050565b6000819050919050565b6200022183620001e4565b6200023962000230826200020c565b8484546200017a565b825550505050565b600090565b6200025062000241565b6200025d81848462000216565b505050565b5b8181101562000285576200027960008262000246565b60018101905062000263565b5050565b601f821115620002d4576200029e8162000148565b620002a9846200015d565b81016020851015620002b9578190505b620002d1620002c8856200015d565b83018262000262565b50505b505050565b600082821c905092915050565b6000620002f960001984600802620002d9565b1980831691505092915050565b6000620003148383620002e6565b9150826002028217905092915050565b6200032f82620000aa565b67ffffffffffffffff8111156200034b576200034a620000b5565b5b62000357825462000113565b6200036482828562000289565b600060209050601f8311600181146200039c576000841562000387578287015190505b62000393858262000306565b86555062000403565b601f198416620003ac8662000148565b60005b82811015620003d657848901518255600182019150602085019450602081019050620003af565b86831015620003f65784890151620003f2601f891682620002e6565b8355505b6001600288020188555050505b505050505050565b615d21806200041b6000396000f3fe608060405234801561001057600080fd5b50600436106101c45760003560e01c806388f504d0116100f9578063b88d4fde11610097578063cb69aef611610071578063cb69aef614610513578063cb949e511461052f578063d868930c1461055f578063e985e9c51461058f576101c4565b8063b88d4fde146104a9578063c5fb207d146104c5578063c87b56dd146104e3576101c4565b8063a22cb465116100d3578063a22cb465146103fd578063a4dfb4c814610419578063a97307b114610449578063b2734eaf14610479576101c4565b806388f504d0146103a75780638c513874146103c357806395d89b41146103df576101c4565b80633d0a7cbb1161016657806367f7eefe1161014057806367f7eefe1461032157806370a082311461033f5780637eeae15e1461036f5780638292dca01461038b576101c4565b80633d0a7cbb146102b957806342842e0e146102d55780636352211e146102f1576101c4565b8063095ea7b3116101a2578063095ea7b31461024757806323b872dd146102635780633190abc01461027f578063372879911461029b576101c4565b806301ffc9a7146101c957806306fdde03146101f9578063081812fc14610217575b600080fd5b6101e360048036038101906101de9190613e39565b6105bf565b6040516101f09190613e81565b60405180910390f35b6102016106a1565b60405161020e9190613f35565b60405180910390f35b610231600480360381019061022c9190613f8d565b610733565b60405161023e9190613ffb565b60405180910390f35b610261600480360381019061025c9190614042565b610779565b005b61027d60048036038101906102789190614082565b610890565b005b6102996004803603810190610294919061420a565b6108f0565b005b6102a3610a0d565b6040516102b09190614473565b60405180910390f35b6102d360048036038101906102ce91906144c1565b610a1d565b005b6102ef60048036038101906102ea9190614082565b610a5a565b005b61030b60048036038101906103069190613f8d565b610a7a565b6040516103189190613ffb565b60405180910390f35b610329610b2b565b6040516103369190614473565b60405180910390f35b6103596004803603810190610354919061451d565b610fa7565b6040516103669190614559565b60405180910390f35b6103896004803603810190610384919061420a565b61105e565b005b6103a560048036038101906103a0919061420a565b61117b565b005b6103c160048036038101906103bc9190614574565b611298565b005b6103dd60048036038101906103d8919061420a565b611372565b005b6103e761148f565b6040516103f49190613f35565b60405180910390f35b6104176004803603810190610412919061460f565b611521565b005b610433600480360381019061042e919061464f565b611537565b604051610440919061475e565b60405180910390f35b610463600480360381019061045e9190613f8d565b611943565b604051610470919061478f565b60405180910390f35b610493600480360381019061048e919061451d565b6119c3565b6040516104a091906147ee565b60405180910390f35b6104c360048036038101906104be91906148b1565b611b40565b005b6104cd611ba2565b6040516104da9190614ac9565b60405180910390f35b6104fd60048036038101906104f89190613f8d565b611bb2565b60405161050a9190613f35565b60405180910390f35b61052d60048036038101906105289190614aeb565b611c1a565b005b6105496004803603810190610544919061451d565b611fa9565b6040516105569190614c39565b60405180910390f35b6105796004803603810190610574919061451d565b612126565b604051610586919061478f565b60405180910390f35b6105a960048036038101906105a49190614c5b565b61218b565b6040516105b69190613e81565b60405180910390f35b60007f80ac58cd000000000000000000000000000000000000000000000000000000007bffffffffffffffffffffffffffffffffffffffffffffffffffffffff1916827bffffffffffffffffffffffffffffffffffffffffffffffffffffffff1916148061068a57507f5b5e139f000000000000000000000000000000000000000000000000000000007bffffffffffffffffffffffffffffffffffffffffffffffffffffffff1916827bffffffffffffffffffffffffffffffffffffffffffffffffffffffff1916145b8061069a57506106998261221f565b5b9050919050565b6060600080546106b090614cca565b80601f01602080910402602001604051908101604052809291908181526020018280546106dc90614cca565b80156107295780601f106106fe57610100808354040283529160200191610729565b820191906000526020600020905b81548152906001019060200180831161070c57829003601f168201915b5050505050905090565b600061073e82612289565b6004600083815260200190815260200160002060009054906101000a900473ffffffffffffffffffffffffffffffffffffffff169050919050565b600061078482610a7a565b90508073ffffffffffffffffffffffffffffffffffffffff168373ffffffffffffffffffffffffffffffffffffffff16036107f4576040517f08c379a00000000000000000000000000000000000000000000000000000000081526004016107eb90614d6d565b60405180910390fd5b8073ffffffffffffffffffffffffffffffffffffffff166108136122d4565b73ffffffffffffffffffffffffffffffffffffffff16148061084257506108418161083c6122d4565b61218b565b5b610881576040517f08c379a000000000000000000000000000000000000000000000000000000000815260040161087890614dff565b60405180910390fd5b61088b83836122dc565b505050565b6108a161089b6122d4565b82612395565b6108e0576040517f08c379a00000000000000000000000000000000000000000000000000000000081526004016108d790614e91565b60405180910390fd5b6108eb83838361242a565b505050565b6108f982612690565b610938576040517f08c379a000000000000000000000000000000000000000000000000000000000815260040161092f90614efd565b60405180910390fd5b61094181612690565b610980576040517f08c379a000000000000000000000000000000000000000000000000000000000815260040161097790614f69565b60405180910390fd5b6000339050604051806040016040528084815260200183815250600660008373ffffffffffffffffffffffffffffffffffffffff1673ffffffffffffffffffffffffffffffffffffffff16815260200190815260200160002060008201518160000190816109ee9190615135565b506020820151816001019081610a049190615135565b50905050505050565b6060610a18336126e7565b905090565b8060098363ffffffff1681548110610a3857610a37615207565b5b90600052602060002090600302016001019081610a559190615135565b505050565b610a7583838360405180602001604052806000815250611b40565b505050565b6000806002600084815260200190815260200160002060009054906101000a900473ffffffffffffffffffffffffffffffffffffffff169050600073ffffffffffffffffffffffffffffffffffffffff168173ffffffffffffffffffffffffffffffffffffffff1603610b22576040517f08c379a0000000000000000000000000000000000000000000000000000000008152600401610b1990615282565b60405180910390fd5b80915050919050565b60606000805b600980549050811015610c13573373ffffffffffffffffffffffffffffffffffffffff16600860098381548110610b6b57610b6a615207565b5b906000526020600020906003020160020160009054906101000a900463ffffffff1663ffffffff1681548110610ba457610ba3615207565b5b906000526020600020906005020160000160009054906101000a900473ffffffffffffffffffffffffffffffffffffffff1673ffffffffffffffffffffffffffffffffffffffff1603610c00578180610bfc906152d1565b9250505b8080610c0b906152d1565b915050610b31565b5060008167ffffffffffffffff811115610c3057610c2f6140df565b5b604051908082528060200260200182016040528015610c6957816020015b610c56613cb8565b815260200190600190039081610c4e5790505b5090506000915060005b600980549050811015610f9e573373ffffffffffffffffffffffffffffffffffffffff16600860098381548110610cad57610cac615207565b5b906000526020600020906003020160020160009054906101000a900463ffffffff1663ffffffff1681548110610ce657610ce5615207565b5b906000526020600020906005020160000160009054906101000a900473ffffffffffffffffffffffffffffffffffffffff1673ffffffffffffffffffffffffffffffffffffffff1603610f8b5760098181548110610d4757610d46615207565b5b906000526020600020906003020160405180610100016040529081600082018054610d7190614cca565b80601f0160208091040260200160405190810160405280929190818152602001828054610d9d90614cca565b8015610dea5780601f10610dbf57610100808354040283529160200191610dea565b820191906000526020600020905b815481529060010190602001808311610dcd57829003601f168201915b50505050508152602001600182018054610e0390614cca565b80601f0160208091040260200160405190810160405280929190818152602001828054610e2f90614cca565b8015610e7c5780601f10610e5157610100808354040283529160200191610e7c565b820191906000526020600020905b815481529060010190602001808311610e5f57829003601f168201915b505050505081526020016002820160009054906101000a900463ffffffff1663ffffffff1663ffffffff1681526020016002820160049054906101000a900463ffffffff1663ffffffff1663ffffffff1681526020016002820160089054906101000a900463ffffffff1663ffffffff1663ffffffff16815260200160028201600c9054906101000a900463ffffffff1663ffffffff1663ffffffff1681526020016002820160109054906101000a900463ffffffff1663ffffffff1663ffffffff1681526020016002820160149054906101000a900460ff161515151581525050828481518110610f7157610f70615207565b5b60200260200101819052508280610f87906152d1565b9350505b8080610f96906152d1565b915050610c73565b50809250505090565b60008073ffffffffffffffffffffffffffffffffffffffff168273ffffffffffffffffffffffffffffffffffffffff1603611017576040517f08c379a000000000000000000000000000000000000000000000000000000000815260040161100e9061538b565b60405180910390fd5b600360008373ffffffffffffffffffffffffffffffffffffffff1673ffffffffffffffffffffffffffffffffffffffff168152602001908152602001600020549050919050565b61106782612690565b6110a6576040517f08c379a000000000000000000000000000000000000000000000000000000000815260040161109d90614efd565b60405180910390fd5b6110af81612690565b6110ee576040517f08c379a00000000000000000000000000000000000000000000000000000000081526004016110e590614f69565b60405180910390fd5b6000339050604051806040016040528084815260200183815250600760008373ffffffffffffffffffffffffffffffffffffffff1673ffffffffffffffffffffffffffffffffffffffff168152602001908152602001600020600082015181600001908161115c9190615135565b5060208201518160010190816111729190615135565b50905050505050565b61118482612690565b6111c3576040517f08c379a00000000000000000000000000000000000000000000000000000000081526004016111ba90614efd565b60405180910390fd5b6111cc81612690565b61120b576040517f08c379a000000000000000000000000000000000000000000000000000000000815260040161120290614f69565b60405180910390fd5b6000339050604051806040016040528084815260200183815250600760008373ffffffffffffffffffffffffffffffffffffffff1673ffffffffffffffffffffffffffffffffffffffff16815260200190815260200160002060008201518160000190816112799190615135565b50602082015181600101908161128f9190615135565b50905050505050565b60088163ffffffff16815481106112b2576112b1615207565b5b906000526020600020906005020160000160009054906101000a900473ffffffffffffffffffffffffffffffffffffffff168073ffffffffffffffffffffffffffffffffffffffff163373ffffffffffffffffffffffffffffffffffffffff1614611352576040517f08c379a0000000000000000000000000000000000000000000000000000000008152600401611349906153f7565b60405180910390fd5b600061135f838587612a0b565b905061136b8582612e03565b5050505050565b61137b82612690565b6113ba576040517f08c379a00000000000000000000000000000000000000000000000000000000081526004016113b190614efd565b60405180910390fd5b6113c381612690565b611402576040517f08c379a00000000000000000000000000000000000000000000000000000000081526004016113f990614f69565b60405180910390fd5b6000339050604051806040016040528084815260200183815250600660008373ffffffffffffffffffffffffffffffffffffffff1673ffffffffffffffffffffffffffffffffffffffff16815260200190815260200160002060008201518160000190816114709190615135565b5060208201518160010190816114869190615135565b50905050505050565b60606001805461149e90614cca565b80601f01602080910402602001604051908101604052809291908181526020018280546114ca90614cca565b80156115175780601f106114ec57610100808354040283529160200191611517565b820191906000526020600020905b8154815290600101906020018083116114fa57829003601f168201915b5050505050905090565b61153361152c6122d4565b8383612e21565b5050565b61153f613d1d565b8163ffffffff16600880549050811061158d576040517f08c379a000000000000000000000000000000000000000000000000000000000815260040161158490615463565b60405180910390fd5b60088363ffffffff16815481106115a7576115a6615207565b5b906000526020600020906005020160000160009054906101000a900473ffffffffffffffffffffffffffffffffffffffff168073ffffffffffffffffffffffffffffffffffffffff163373ffffffffffffffffffffffffffffffffffffffff1614611647576040517f08c379a000000000000000000000000000000000000000000000000000000000815260040161163e906153f7565b60405180910390fd5b60088463ffffffff168154811061166157611660615207565b5b9060005260206000209060050201604051806101200160405290816000820160009054906101000a900473ffffffffffffffffffffffffffffffffffffffff1673ffffffffffffffffffffffffffffffffffffffff1673ffffffffffffffffffffffffffffffffffffffff1681526020016001820180546116e190614cca565b80601f016020809104026020016040519081016040528092919081815260200182805461170d90614cca565b801561175a5780601f1061172f5761010080835404028352916020019161175a565b820191906000526020600020905b81548152906001019060200180831161173d57829003601f168201915b5050505050815260200160028201805461177390614cca565b80601f016020809104026020016040519081016040528092919081815260200182805461179f90614cca565b80156117ec5780601f106117c1576101008083540402835291602001916117ec565b820191906000526020600020905b8154815290600101906020018083116117cf57829003601f168201915b5050505050815260200160038201805461180590614cca565b80601f016020809104026020016040519081016040528092919081815260200182805461183190614cca565b801561187e5780601f106118535761010080835404028352916020019161187e565b820191906000526020600020905b81548152906001019060200180831161186157829003601f168201915b505050505081526020016004820160009054906101000a900463ffffffff1663ffffffff1663ffffffff1681526020016004820160049054906101000a900463ffffffff1663ffffffff1663ffffffff1681526020016004820160089054906101000a900463ffffffff1663ffffffff1663ffffffff16815260200160048201600c9054906101000a900463ffffffff1663ffffffff1663ffffffff1681526020016004820160109054906101000a900460ff16151515158152505092505050919050565b60008061194f83612f8d565b9050600081606001519050600062278d008360a0015161196f9190615483565b62278d0084608001516119829190615483565b8361198d91906154c1565b61199791906154c1565b9050600062278d0042836119ab91906154fb565b6119b5919061555e565b905080945050505050919050565b6119cb613d99565b600760008373ffffffffffffffffffffffffffffffffffffffff1673ffffffffffffffffffffffffffffffffffffffff168152602001908152602001600020604051806040016040529081600082018054611a2590614cca565b80601f0160208091040260200160405190810160405280929190818152602001828054611a5190614cca565b8015611a9e5780601f10611a7357610100808354040283529160200191611a9e565b820191906000526020600020905b815481529060010190602001808311611a8157829003601f168201915b50505050508152602001600182018054611ab790614cca565b80601f0160208091040260200160405190810160405280929190818152602001828054611ae390614cca565b8015611b305780601f10611b0557610100808354040283529160200191611b30565b820191906000526020600020905b815481529060010190602001808311611b1357829003601f168201915b5050505050815250509050919050565b611b51611b4b6122d4565b83612395565b611b90576040517f08c379a0000000000000000000000000000000000000000000000000000000008152600401611b8790614e91565b60405180910390fd5b611b9c848484846131c7565b50505050565b6060611bad33613223565b905090565b6060611bbd82612289565b6000611bc76136ed565b90506000815111611be75760405180602001604052806000815250611c12565b80611bf184613704565b604051602001611c029291906155cb565b6040516020818303038152906040525b915050919050565b611ced600760003373ffffffffffffffffffffffffffffffffffffffff1673ffffffffffffffffffffffffffffffffffffffff1681526020019081526020016000206000018054611c6a90614cca565b80601f0160208091040260200160405190810160405280929190818152602001828054611c9690614cca565b8015611ce35780601f10611cb857610100808354040283529160200191611ce3565b820191906000526020600020905b815481529060010190602001808311611cc657829003601f168201915b5050505050612690565b611d2c576040517f08c379a0000000000000000000000000000000000000000000000000000000008152600401611d239061563b565b60405180910390fd5b611d3588612690565b611d74576040517f08c379a0000000000000000000000000000000000000000000000000000000008152600401611d6b906156a7565b60405180910390fd5b611d7d87612690565b611dbc576040517f08c379a0000000000000000000000000000000000000000000000000000000008152600401611db390615713565b60405180910390fd5b60086040518061012001604052803373ffffffffffffffffffffffffffffffffffffffff1681526020018a81526020018981526020018881526020018763ffffffff1681526020018663ffffffff1681526020018563ffffffff1681526020018463ffffffff168152602001831515815250908060018154018082558091505060019003906000526020600020906005020160009091909190915060008201518160000160006101000a81548173ffffffffffffffffffffffffffffffffffffffff021916908373ffffffffffffffffffffffffffffffffffffffff1602179055506020820151816001019081611eb39190615135565b506040820151816002019081611ec99190615135565b506060820151816003019081611edf9190615135565b5060808201518160040160006101000a81548163ffffffff021916908363ffffffff16021790555060a08201518160040160046101000a81548163ffffffff021916908363ffffffff16021790555060c08201518160040160086101000a81548163ffffffff021916908363ffffffff16021790555060e082015181600401600c6101000a81548163ffffffff021916908363ffffffff1602179055506101008201518160040160106101000a81548160ff02191690831515021790555050505050505050505050565b611fb1613db3565b600660008373ffffffffffffffffffffffffffffffffffffffff1673ffffffffffffffffffffffffffffffffffffffff16815260200190815260200160002060405180604001604052908160008201805461200b90614cca565b80601f016020809104026020016040519081016040528092919081815260200182805461203790614cca565b80156120845780601f1061205957610100808354040283529160200191612084565b820191906000526020600020905b81548152906001019060200180831161206757829003601f168201915b5050505050815260200160018201805461209d90614cca565b80601f01602080910402602001604051908101604052809291908181526020018280546120c990614cca565b80156121165780601f106120eb57610100808354040283529160200191612116565b820191906000526020600020905b8154815290600101906020018083116120f957829003601f168201915b5050505050815250509050919050565b600080612132836126e7565b90506000805b82518110156121805782818151811061215457612153615207565b5b602002602001015160c001518261216b91906154c1565b91508080612178906152d1565b915050612138565b508092505050919050565b6000600560008473ffffffffffffffffffffffffffffffffffffffff1673ffffffffffffffffffffffffffffffffffffffff16815260200190815260200160002060008373ffffffffffffffffffffffffffffffffffffffff1673ffffffffffffffffffffffffffffffffffffffff16815260200190815260200160002060009054906101000a900460ff16905092915050565b60007f01ffc9a7000000000000000000000000000000000000000000000000000000007bffffffffffffffffffffffffffffffffffffffffffffffffffffffff1916827bffffffffffffffffffffffffffffffffffffffffffffffffffffffff1916149050919050565b61229281613864565b6122d1576040517f08c379a00000000000000000000000000000000000000000000000000000000081526004016122c890615282565b60405180910390fd5b50565b600033905090565b816004600083815260200190815260200160002060006101000a81548173ffffffffffffffffffffffffffffffffffffffff021916908373ffffffffffffffffffffffffffffffffffffffff160217905550808273ffffffffffffffffffffffffffffffffffffffff1661234f83610a7a565b73ffffffffffffffffffffffffffffffffffffffff167f8c5be1e5ebec7d5bd14f71427d1e84f3dd0314c0f7b2291e5b200ac8c7c3b92560405160405180910390a45050565b6000806123a183610a7a565b90508073ffffffffffffffffffffffffffffffffffffffff168473ffffffffffffffffffffffffffffffffffffffff1614806123e357506123e2818561218b565b5b8061242157508373ffffffffffffffffffffffffffffffffffffffff1661240984610733565b73ffffffffffffffffffffffffffffffffffffffff16145b91505092915050565b8273ffffffffffffffffffffffffffffffffffffffff1661244a82610a7a565b73ffffffffffffffffffffffffffffffffffffffff16146124a0576040517f08c379a0000000000000000000000000000000000000000000000000000000008152600401612497906157a5565b60405180910390fd5b600073ffffffffffffffffffffffffffffffffffffffff168273ffffffffffffffffffffffffffffffffffffffff160361250f576040517f08c379a000000000000000000000000000000000000000000000000000000000815260040161250690615837565b60405180910390fd5b61251a8383836138d0565b6125256000826122dc565b6001600360008573ffffffffffffffffffffffffffffffffffffffff1673ffffffffffffffffffffffffffffffffffffffff16815260200190815260200160002060008282546125759190615857565b925050819055506001600360008473ffffffffffffffffffffffffffffffffffffffff1673ffffffffffffffffffffffffffffffffffffffff16815260200190815260200160002060008282546125cc919061588b565b92505081905550816002600083815260200190815260200160002060006101000a81548173ffffffffffffffffffffffffffffffffffffffff021916908373ffffffffffffffffffffffffffffffffffffffff160217905550808273ffffffffffffffffffffffffffffffffffffffff168473ffffffffffffffffffffffffffffffffffffffff167fddf252ad1be2c89b69c2b068fc378daa952ba7f163c4a11628f55a4df523b3ef60405160405180910390a461268b8383836138d5565b505050565b60006040516020016126a190615907565b60405160208183030381529060405280519060200120826040516020016126c8919061591c565b6040516020818303038152906040528051906020012014159050919050565b606060006126f483610fa7565b67ffffffffffffffff81111561270d5761270c6140df565b5b60405190808252806020026020018201604052801561274657816020015b612733613cb8565b81526020019060019003908161272b5790505b5090506000805b600980549050811015612a00573373ffffffffffffffffffffffffffffffffffffffff1661277a82610a7a565b73ffffffffffffffffffffffffffffffffffffffff16036129ed57600981815481106127a9576127a8615207565b5b9060005260206000209060030201604051806101000160405290816000820180546127d390614cca565b80601f01602080910402602001604051908101604052809291908181526020018280546127ff90614cca565b801561284c5780601f106128215761010080835404028352916020019161284c565b820191906000526020600020905b81548152906001019060200180831161282f57829003601f168201915b5050505050815260200160018201805461286590614cca565b80601f016020809104026020016040519081016040528092919081815260200182805461289190614cca565b80156128de5780601f106128b3576101008083540402835291602001916128de565b820191906000526020600020905b8154815290600101906020018083116128c157829003601f168201915b505050505081526020016002820160009054906101000a900463ffffffff1663ffffffff1663ffffffff1681526020016002820160049054906101000a900463ffffffff1663ffffffff1663ffffffff1681526020016002820160089054906101000a900463ffffffff1663ffffffff1663ffffffff16815260200160028201600c9054906101000a900463ffffffff1663ffffffff1663ffffffff1681526020016002820160109054906101000a900463ffffffff1663ffffffff1663ffffffff1681526020016002820160149054906101000a900460ff1615151515815250508383815181106129d3576129d2615207565b5b602002602001018190525081806129e9906152d1565b9250505b80806129f8906152d1565b91505061274d565b508192505050919050565b600060088463ffffffff1681548110612a2757612a26615207565b5b906000526020600020906005020160000160009054906101000a900473ffffffffffffffffffffffffffffffffffffffff168073ffffffffffffffffffffffffffffffffffffffff163373ffffffffffffffffffffffffffffffffffffffff1614612ac7576040517f08c379a0000000000000000000000000000000000000000000000000000000008152600401612abe906153f7565b60405180910390fd5b612ad084612690565b612b0f576040517f08c379a0000000000000000000000000000000000000000000000000000000008152600401612b069061597f565b60405180910390fd5b6000600980549050905060096040518061010001604052808781526020016040518060400160405280600781526020017f576f726b696e670000000000000000000000000000000000000000000000000081525081526020018863ffffffff1681526020014263ffffffff16815260200160088963ffffffff1681548110612b9a57612b99615207565b5b906000526020600020906005020160040160009054906101000a900463ffffffff1663ffffffff168152602001600a80612bd389612126565b612bdd919061599f565b60088b63ffffffff1681548110612bf757612bf6615207565b5b906000526020600020906005020160040160049054906101000a900463ffffffff16612c239190615483565b612c2d919061555e565b63ffffffff16815260200160088963ffffffff1681548110612c5257612c51615207565b5b906000526020600020906005020160040160089054906101000a900463ffffffff1663ffffffff16815260200160088963ffffffff1681548110612c9957612c98615207565b5b906000526020600020906005020160040160109054906101000a900460ff16151581525090806001815401808255809150506001900390600052602060002090600302016000909190919091506000820151816000019081612cfb9190615135565b506020820151816001019081612d119190615135565b5060408201518160020160006101000a81548163ffffffff021916908363ffffffff16021790555060608201518160020160046101000a81548163ffffffff021916908363ffffffff16021790555060808201518160020160086101000a81548163ffffffff021916908363ffffffff16021790555060a082015181600201600c6101000a81548163ffffffff021916908363ffffffff16021790555060c08201518160020160106101000a81548163ffffffff021916908363ffffffff16021790555060e08201518160020160146101000a81548160ff021916908315150217905550505080925050509392505050565b612e1d8282604051806020016040528060008152506138da565b5050565b8173ffffffffffffffffffffffffffffffffffffffff168373ffffffffffffffffffffffffffffffffffffffff1603612e8f576040517f08c379a0000000000000000000000000000000000000000000000000000000008152600401612e8690615a1c565b60405180910390fd5b80600560008573ffffffffffffffffffffffffffffffffffffffff1673ffffffffffffffffffffffffffffffffffffffff16815260200190815260200160002060008473ffffffffffffffffffffffffffffffffffffffff1673ffffffffffffffffffffffffffffffffffffffff16815260200190815260200160002060006101000a81548160ff0219169083151502179055508173ffffffffffffffffffffffffffffffffffffffff168373ffffffffffffffffffffffffffffffffffffffff167f17307eab39ab6107e8899845ad3d59bd9653f200f220920489ca2b5937696c3183604051612f809190613e81565b60405180910390a3505050565b612f95613cb8565b60098281548110612fa957612fa8615207565b5b906000526020600020906003020160405180610100016040529081600082018054612fd390614cca565b80601f0160208091040260200160405190810160405280929190818152602001828054612fff90614cca565b801561304c5780601f106130215761010080835404028352916020019161304c565b820191906000526020600020905b81548152906001019060200180831161302f57829003601f168201915b5050505050815260200160018201805461306590614cca565b80601f016020809104026020016040519081016040528092919081815260200182805461309190614cca565b80156130de5780601f106130b3576101008083540402835291602001916130de565b820191906000526020600020905b8154815290600101906020018083116130c157829003601f168201915b505050505081526020016002820160009054906101000a900463ffffffff1663ffffffff1663ffffffff1681526020016002820160049054906101000a900463ffffffff1663ffffffff1663ffffffff1681526020016002820160089054906101000a900463ffffffff1663ffffffff1663ffffffff16815260200160028201600c9054906101000a900463ffffffff1663ffffffff1663ffffffff1681526020016002820160109054906101000a900463ffffffff1663ffffffff1663ffffffff1681526020016002820160149054906101000a900460ff1615151515815250509050919050565b6131d284848461242a565b6131de84848484613935565b61321d576040517f08c379a000000000000000000000000000000000000000000000000000000000815260040161321490615aae565b60405180910390fd5b50505050565b60606000805b6008805490508110156132d1578373ffffffffffffffffffffffffffffffffffffffff166008828154811061326157613260615207565b5b906000526020600020906005020160000160009054906101000a900473ffffffffffffffffffffffffffffffffffffffff1673ffffffffffffffffffffffffffffffffffffffff16036132be576001826132bb919061588b565b91505b80806132c9906152d1565b915050613229565b5060008167ffffffffffffffff8111156132ee576132ed6140df565b5b60405190808252806020026020018201604052801561332757816020015b613314613d1d565b81526020019060019003908161330c5790505b5090506000805b6008805490508110156136e1578573ffffffffffffffffffffffffffffffffffffffff166008828154811061336657613365615207565b5b906000526020600020906005020160000160009054906101000a900473ffffffffffffffffffffffffffffffffffffffff1673ffffffffffffffffffffffffffffffffffffffff16036136ce57600881815481106133c7576133c6615207565b5b9060005260206000209060050201604051806101200160405290816000820160009054906101000a900473ffffffffffffffffffffffffffffffffffffffff1673ffffffffffffffffffffffffffffffffffffffff1673ffffffffffffffffffffffffffffffffffffffff16815260200160018201805461344790614cca565b80601f016020809104026020016040519081016040528092919081815260200182805461347390614cca565b80156134c05780601f10613495576101008083540402835291602001916134c0565b820191906000526020600020905b8154815290600101906020018083116134a357829003601f168201915b505050505081526020016002820180546134d990614cca565b80601f016020809104026020016040519081016040528092919081815260200182805461350590614cca565b80156135525780601f1061352757610100808354040283529160200191613552565b820191906000526020600020905b81548152906001019060200180831161353557829003601f168201915b5050505050815260200160038201805461356b90614cca565b80601f016020809104026020016040519081016040528092919081815260200182805461359790614cca565b80156135e45780601f106135b9576101008083540402835291602001916135e4565b820191906000526020600020905b8154815290600101906020018083116135c757829003601f168201915b505050505081526020016004820160009054906101000a900463ffffffff1663ffffffff1663ffffffff1681526020016004820160049054906101000a900463ffffffff1663ffffffff1663ffffffff1681526020016004820160089054906101000a900463ffffffff1663ffffffff1663ffffffff16815260200160048201600c9054906101000a900463ffffffff1663ffffffff1663ffffffff1681526020016004820160109054906101000a900460ff1615151515815250508383815181106136b3576136b2615207565b5b60200260200101819052506001826136cb919061588b565b91505b80806136d9906152d1565b91505061332e565b50819350505050919050565b606060405180602001604052806000815250905090565b60606000820361374b576040518060400160405280600181526020017f3000000000000000000000000000000000000000000000000000000000000000815250905061385f565b600082905060005b6000821461377d578080613766906152d1565b915050600a826137769190615ace565b9150613753565b60008167ffffffffffffffff811115613799576137986140df565b5b6040519080825280601f01601f1916602001820160405280156137cb5781602001600182028036833780820191505090505b5090505b60008514613858576001826137e49190615857565b9150600a856137f39190615aff565b60306137ff919061588b565b60f81b81838151811061381557613814615207565b5b60200101907effffffffffffffffffffffffffffffffffffffffffffffffffffffffffffff1916908160001a905350600a856138519190615ace565b94506137cf565b8093505050505b919050565b60008073ffffffffffffffffffffffffffffffffffffffff166002600084815260200190815260200160002060009054906101000a900473ffffffffffffffffffffffffffffffffffffffff1673ffffffffffffffffffffffffffffffffffffffff1614159050919050565b505050565b505050565b6138e48383613abc565b6138f16000848484613935565b613930576040517f08c379a000000000000000000000000000000000000000000000000000000000815260040161392790615aae565b60405180910390fd5b505050565b60006139568473ffffffffffffffffffffffffffffffffffffffff16613c95565b15613aaf578373ffffffffffffffffffffffffffffffffffffffff1663150b7a0261397f6122d4565b8786866040518563ffffffff1660e01b81526004016139a19493929190615b85565b6020604051808303816000875af19250505080156139dd57506040513d601f19601f820116820180604052508101906139da9190615be6565b60015b613a5f573d8060008114613a0d576040519150601f19603f3d011682016040523d82523d6000602084013e613a12565b606091505b506000815103613a57576040517f08c379a0000000000000000000000000000000000000000000000000000000008152600401613a4e90615aae565b60405180910390fd5b805181602001fd5b63150b7a0260e01b7bffffffffffffffffffffffffffffffffffffffffffffffffffffffff1916817bffffffffffffffffffffffffffffffffffffffffffffffffffffffff191614915050613ab4565b600190505b949350505050565b600073ffffffffffffffffffffffffffffffffffffffff168273ffffffffffffffffffffffffffffffffffffffff1603613b2b576040517f08c379a0000000000000000000000000000000000000000000000000000000008152600401613b2290615c5f565b60405180910390fd5b613b3481613864565b15613b74576040517f08c379a0000000000000000000000000000000000000000000000000000000008152600401613b6b90615ccb565b60405180910390fd5b613b80600083836138d0565b6001600360008473ffffffffffffffffffffffffffffffffffffffff1673ffffffffffffffffffffffffffffffffffffffff1681526020019081526020016000206000828254613bd0919061588b565b92505081905550816002600083815260200190815260200160002060006101000a81548173ffffffffffffffffffffffffffffffffffffffff021916908373ffffffffffffffffffffffffffffffffffffffff160217905550808273ffffffffffffffffffffffffffffffffffffffff16600073ffffffffffffffffffffffffffffffffffffffff167fddf252ad1be2c89b69c2b068fc378daa952ba7f163c4a11628f55a4df523b3ef60405160405180910390a4613c91600083836138d5565b5050565b6000808273ffffffffffffffffffffffffffffffffffffffff163b119050919050565b6040518061010001604052806060815260200160608152602001600063ffffffff168152602001600063ffffffff168152602001600063ffffffff168152602001600063ffffffff168152602001600063ffffffff1681526020016000151581525090565b604051806101200160405280600073ffffffffffffffffffffffffffffffffffffffff168152602001606081526020016060815260200160608152602001600063ffffffff168152602001600063ffffffff168152602001600063ffffffff168152602001600063ffffffff1681526020016000151581525090565b604051806040016040528060608152602001606081525090565b604051806040016040528060608152602001606081525090565b6000604051905090565b600080fd5b600080fd5b60007fffffffff0000000000000000000000000000000000000000000000000000000082169050919050565b613e1681613de1565b8114613e2157600080fd5b50565b600081359050613e3381613e0d565b92915050565b600060208284031215613e4f57613e4e613dd7565b5b6000613e5d84828501613e24565b91505092915050565b60008115159050919050565b613e7b81613e66565b82525050565b6000602082019050613e966000830184613e72565b92915050565b600081519050919050565b600082825260208201905092915050565b60005b83811015613ed6578082015181840152602081019050613ebb565b83811115613ee5576000848401525b50505050565b6000601f19601f8301169050919050565b6000613f0782613e9c565b613f118185613ea7565b9350613f21818560208601613eb8565b613f2a81613eeb565b840191505092915050565b60006020820190508181036000830152613f4f8184613efc565b905092915050565b6000819050919050565b613f6a81613f57565b8114613f7557600080fd5b50565b600081359050613f8781613f61565b92915050565b600060208284031215613fa357613fa2613dd7565b5b6000613fb184828501613f78565b91505092915050565b600073ffffffffffffffffffffffffffffffffffffffff82169050919050565b6000613fe582613fba565b9050919050565b613ff581613fda565b82525050565b60006020820190506140106000830184613fec565b92915050565b61401f81613fda565b811461402a57600080fd5b50565b60008135905061403c81614016565b92915050565b6000806040838503121561405957614058613dd7565b5b60006140678582860161402d565b925050602061407885828601613f78565b9150509250929050565b60008060006060848603121561409b5761409a613dd7565b5b60006140a98682870161402d565b93505060206140ba8682870161402d565b92505060406140cb86828701613f78565b9150509250925092565b600080fd5b600080fd5b7f4e487b7100000000000000000000000000000000000000000000000000000000600052604160045260246000fd5b61411782613eeb565b810181811067ffffffffffffffff82111715614136576141356140df565b5b80604052505050565b6000614149613dcd565b9050614155828261410e565b919050565b600067ffffffffffffffff821115614175576141746140df565b5b61417e82613eeb565b9050602081019050919050565b82818337600083830152505050565b60006141ad6141a88461415a565b61413f565b9050828152602081018484840111156141c9576141c86140da565b5b6141d484828561418b565b509392505050565b600082601f8301126141f1576141f06140d5565b5b813561420184826020860161419a565b91505092915050565b6000806040838503121561422157614220613dd7565b5b600083013567ffffffffffffffff81111561423f5761423e613ddc565b5b61424b858286016141dc565b925050602083013567ffffffffffffffff81111561426c5761426b613ddc565b5b614278858286016141dc565b9150509250929050565b600081519050919050565b600082825260208201905092915050565b6000819050602082019050919050565b600082825260208201905092915050565b60006142ca82613e9c565b6142d481856142ae565b93506142e4818560208601613eb8565b6142ed81613eeb565b840191505092915050565b600063ffffffff82169050919050565b614311816142f8565b82525050565b61432081613e66565b82525050565b600061010083016000830151848203600086015261434482826142bf565b9150506020830151848203602086015261435e82826142bf565b91505060408301516143736040860182614308565b5060608301516143866060860182614308565b5060808301516143996080860182614308565b5060a08301516143ac60a0860182614308565b5060c08301516143bf60c0860182614308565b5060e08301516143d260e0860182614317565b508091505092915050565b60006143e98383614326565b905092915050565b6000602082019050919050565b600061440982614282565b614413818561428d565b9350836020820285016144258561429e565b8060005b85811015614461578484038952815161444285826143dd565b945061444d836143f1565b925060208a01995050600181019050614429565b50829750879550505050505092915050565b6000602082019050818103600083015261448d81846143fe565b905092915050565b61449e816142f8565b81146144a957600080fd5b50565b6000813590506144bb81614495565b92915050565b600080604083850312156144d8576144d7613dd7565b5b60006144e6858286016144ac565b925050602083013567ffffffffffffffff81111561450757614506613ddc565b5b614513858286016141dc565b9150509250929050565b60006020828403121561453357614532613dd7565b5b60006145418482850161402d565b91505092915050565b61455381613f57565b82525050565b600060208201905061456e600083018461454a565b92915050565b60008060006060848603121561458d5761458c613dd7565b5b600061459b8682870161402d565b935050602084013567ffffffffffffffff8111156145bc576145bb613ddc565b5b6145c8868287016141dc565b92505060406145d9868287016144ac565b9150509250925092565b6145ec81613e66565b81146145f757600080fd5b50565b600081359050614609816145e3565b92915050565b6000806040838503121561462657614625613dd7565b5b60006146348582860161402d565b9250506020614645858286016145fa565b9150509250929050565b60006020828403121561466557614664613dd7565b5b6000614673848285016144ac565b91505092915050565b61468581613fda565b82525050565b6000610120830160008301516146a4600086018261467c565b50602083015184820360208601526146bc82826142bf565b915050604083015184820360408601526146d682826142bf565b915050606083015184820360608601526146f082826142bf565b91505060808301516147056080860182614308565b5060a083015161471860a0860182614308565b5060c083015161472b60c0860182614308565b5060e083015161473e60e0860182614308565b50610100830151614753610100860182614317565b508091505092915050565b60006020820190508181036000830152614778818461468b565b905092915050565b614789816142f8565b82525050565b60006020820190506147a46000830184614780565b92915050565b600060408301600083015184820360008601526147c782826142bf565b915050602083015184820360208601526147e182826142bf565b9150508091505092915050565b6000602082019050818103600083015261480881846147aa565b905092915050565b600067ffffffffffffffff82111561482b5761482a6140df565b5b61483482613eeb565b9050602081019050919050565b600061485461484f84614810565b61413f565b9050828152602081018484840111156148705761486f6140da565b5b61487b84828561418b565b509392505050565b600082601f830112614898576148976140d5565b5b81356148a8848260208601614841565b91505092915050565b600080600080608085870312156148cb576148ca613dd7565b5b60006148d98782880161402d565b94505060206148ea8782880161402d565b93505060406148fb87828801613f78565b925050606085013567ffffffffffffffff81111561491c5761491b613ddc565b5b61492887828801614883565b91505092959194509250565b600081519050919050565b600082825260208201905092915050565b6000819050602082019050919050565b600061012083016000830151614979600086018261467c565b506020830151848203602086015261499182826142bf565b915050604083015184820360408601526149ab82826142bf565b915050606083015184820360608601526149c582826142bf565b91505060808301516149da6080860182614308565b5060a08301516149ed60a0860182614308565b5060c0830151614a0060c0860182614308565b5060e0830151614a1360e0860182614308565b50610100830151614a28610100860182614317565b508091505092915050565b6000614a3f8383614960565b905092915050565b6000602082019050919050565b6000614a5f82614934565b614a69818561493f565b935083602082028501614a7b85614950565b8060005b85811015614ab75784840389528151614a988582614a33565b9450614aa383614a47565b925060208a01995050600181019050614a7f565b50829750879550505050505092915050565b60006020820190508181036000830152614ae38184614a54565b905092915050565b600080600080600080600080610100898b031215614b0c57614b0b613dd7565b5b600089013567ffffffffffffffff811115614b2a57614b29613ddc565b5b614b368b828c016141dc565b985050602089013567ffffffffffffffff811115614b5757614b56613ddc565b5b614b638b828c016141dc565b975050604089013567ffffffffffffffff811115614b8457614b83613ddc565b5b614b908b828c016141dc565b9650506060614ba18b828c016144ac565b9550506080614bb28b828c016144ac565b94505060a0614bc38b828c016144ac565b93505060c0614bd48b828c016144ac565b92505060e0614be58b828c016145fa565b9150509295985092959890939650565b60006040830160008301518482036000860152614c1282826142bf565b91505060208301518482036020860152614c2c82826142bf565b9150508091505092915050565b60006020820190508181036000830152614c538184614bf5565b905092915050565b60008060408385031215614c7257614c71613dd7565b5b6000614c808582860161402d565b9250506020614c918582860161402d565b9150509250929050565b7f4e487b7100000000000000000000000000000000000000000000000000000000600052602260045260246000fd5b60006002820490506001821680614ce257607f821691505b602082108103614cf557614cf4614c9b565b5b50919050565b7f4552433732313a20617070726f76616c20746f2063757272656e74206f776e6560008201527f7200000000000000000000000000000000000000000000000000000000000000602082015250565b6000614d57602183613ea7565b9150614d6282614cfb565b604082019050919050565b60006020820190508181036000830152614d8681614d4a565b9050919050565b7f4552433732313a20617070726f76652063616c6c6572206973206e6f7420746f60008201527f6b656e206f776e6572206e6f7220617070726f76656420666f7220616c6c0000602082015250565b6000614de9603e83613ea7565b9150614df482614d8d565b604082019050919050565b60006020820190508181036000830152614e1881614ddc565b9050919050565b7f4552433732313a2063616c6c6572206973206e6f7420746f6b656e206f776e6560008201527f72206e6f7220617070726f766564000000000000000000000000000000000000602082015250565b6000614e7b602e83613ea7565b9150614e8682614e1f565b604082019050919050565b60006020820190508181036000830152614eaa81614e6e565b9050919050565b7f4e616d652063616e6e6f7420626520656d707479000000000000000000000000600082015250565b6000614ee7601483613ea7565b9150614ef282614eb1565b602082019050919050565b60006020820190508181036000830152614f1681614eda565b9050919050565b7f456d61696c2063616e6e6f7420626520656d7074790000000000000000000000600082015250565b6000614f53601583613ea7565b9150614f5e82614f1d565b602082019050919050565b60006020820190508181036000830152614f8281614f46565b9050919050565b60008190508160005260206000209050919050565b60006020601f8301049050919050565b600082821b905092915050565b600060088302614feb7fffffffffffffffffffffffffffffffffffffffffffffffffffffffffffffffff82614fae565b614ff58683614fae565b95508019841693508086168417925050509392505050565b6000819050919050565b600061503261502d61502884613f57565b61500d565b613f57565b9050919050565b6000819050919050565b61504c83615017565b61506061505882615039565b848454614fbb565b825550505050565b600090565b615075615068565b615080818484615043565b505050565b5b818110156150a45761509960008261506d565b600181019050615086565b5050565b601f8211156150e9576150ba81614f89565b6150c384614f9e565b810160208510156150d2578190505b6150e66150de85614f9e565b830182615085565b50505b505050565b600082821c905092915050565b600061510c600019846008026150ee565b1980831691505092915050565b600061512583836150fb565b9150826002028217905092915050565b61513e82613e9c565b67ffffffffffffffff811115615157576151566140df565b5b6151618254614cca565b61516c8282856150a8565b600060209050601f83116001811461519f576000841561518d578287015190505b6151978582615119565b8655506151ff565b601f1984166151ad86614f89565b60005b828110156151d5578489015182556001820191506020850194506020810190506151b0565b868310156151f257848901516151ee601f8916826150fb565b8355505b6001600288020188555050505b505050505050565b7f4e487b7100000000000000000000000000000000000000000000000000000000600052603260045260246000fd5b7f4552433732313a20696e76616c696420746f6b656e2049440000000000000000600082015250565b600061526c601883613ea7565b915061527782615236565b602082019050919050565b6000602082019050818103600083015261529b8161525f565b9050919050565b7f4e487b7100000000000000000000000000000000000000000000000000000000600052601160045260246000fd5b60006152dc82613f57565b91507fffffffffffffffffffffffffffffffffffffffffffffffffffffffffffffffff820361530e5761530d6152a2565b5b600182019050919050565b7f4552433732313a2061646472657373207a65726f206973206e6f74206120766160008201527f6c6964206f776e65720000000000000000000000000000000000000000000000602082015250565b6000615375602983613ea7565b915061538082615319565b604082019050919050565b600060208201905081810360008301526153a481615368565b9050919050565b7f446966666572656e74204d65726368616e740000000000000000000000000000600082015250565b60006153e1601283613ea7565b91506153ec826153ab565b602082019050919050565b60006020820190508181036000830152615410816153d4565b9050919050565b7f4974656d20646f6573206e6f7420657869737400000000000000000000000000600082015250565b600061544d601383613ea7565b915061545882615417565b602082019050919050565b6000602082019050818103600083015261547c81615440565b9050919050565b600061548e826142f8565b9150615499836142f8565b92508163ffffffff04831182151516156154b6576154b56152a2565b5b828202905092915050565b60006154cc826142f8565b91506154d7836142f8565b92508263ffffffff038211156154f0576154ef6152a2565b5b828201905092915050565b6000615506826142f8565b9150615511836142f8565b925082821015615524576155236152a2565b5b828203905092915050565b7f4e487b7100000000000000000000000000000000000000000000000000000000600052601260045260246000fd5b6000615569826142f8565b9150615574836142f8565b9250826155845761558361552f565b5b828204905092915050565b600081905092915050565b60006155a582613e9c565b6155af818561558f565b93506155bf818560208601613eb8565b80840191505092915050565b60006155d7828561559a565b91506155e3828461559a565b91508190509392505050565b7f4f6e6c79204d65726368616e74732063616e20616464206974656d7300000000600082015250565b6000615625601c83613ea7565b9150615630826155ef565b602082019050919050565b6000602082019050818103600083015261565481615618565b9050919050565b7f4974656d206e616d652063616e6e6f7420626520656d70747900000000000000600082015250565b6000615691601983613ea7565b915061569c8261565b565b602082019050919050565b600060208201905081810360008301526156c081615684565b9050919050565b7f4974656d206465736372697074696f6e2063616e6e6f7420626520656d707479600082015250565b60006156fd602083613ea7565b9150615708826156c7565b602082019050919050565b6000602082019050818103600083015261572c816156f0565b9050919050565b7f4552433732313a207472616e736665722066726f6d20696e636f72726563742060008201527f6f776e6572000000000000000000000000000000000000000000000000000000602082015250565b600061578f602583613ea7565b915061579a82615733565b604082019050919050565b600060208201905081810360008301526157be81615782565b9050919050565b7f4552433732313a207472616e7366657220746f20746865207a65726f2061646460008201527f7265737300000000000000000000000000000000000000000000000000000000602082015250565b6000615821602483613ea7565b915061582c826157c5565b604082019050919050565b6000602082019050818103600083015261585081615814565b9050919050565b600061586282613f57565b915061586d83613f57565b9250828210156158805761587f6152a2565b5b828203905092915050565b600061589682613f57565b91506158a183613f57565b9250827fffffffffffffffffffffffffffffffffffffffffffffffffffffffffffffffff038211156158d6576158d56152a2565b5b828201905092915050565b50565b60006158f160008361558f565b91506158fc826158e1565b600082019050919050565b6000615912826158e4565b9150819050919050565b6000615928828461559a565b915081905092915050565b7f53657269616c206e756d6265722063616e6e6f7420626520656d707479000000600082015250565b6000615969601d83613ea7565b915061597482615933565b602082019050919050565b600060208201905081810360008301526159988161595c565b9050919050565b60006159aa826142f8565b91506159b5836142f8565b9250826159c5576159c461552f565b5b828206905092915050565b7f4552433732313a20617070726f766520746f2063616c6c657200000000000000600082015250565b6000615a06601983613ea7565b9150615a11826159d0565b602082019050919050565b60006020820190508181036000830152615a35816159f9565b9050919050565b7f4552433732313a207472616e7366657220746f206e6f6e20455243373231526560008201527f63656976657220696d706c656d656e7465720000000000000000000000000000602082015250565b6000615a98603283613ea7565b9150615aa382615a3c565b604082019050919050565b60006020820190508181036000830152615ac781615a8b565b9050919050565b6000615ad982613f57565b9150615ae483613f57565b925082615af457615af361552f565b5b828204905092915050565b6000615b0a82613f57565b9150615b1583613f57565b925082615b2557615b2461552f565b5b828206905092915050565b600081519050919050565b600082825260208201905092915050565b6000615b5782615b30565b615b618185615b3b565b9350615b71818560208601613eb8565b615b7a81613eeb565b840191505092915050565b6000608082019050615b9a6000830187613fec565b615ba76020830186613fec565b615bb4604083018561454a565b8181036060830152615bc68184615b4c565b905095945050505050565b600081519050615be081613e0d565b92915050565b600060208284031215615bfc57615bfb613dd7565b5b6000615c0a84828501615bd1565b91505092915050565b7f4552433732313a206d696e7420746f20746865207a65726f2061646472657373600082015250565b6000615c49602083613ea7565b9150615c5482615c13565b602082019050919050565b60006020820190508181036000830152615c7881615c3c565b9050919050565b7f4552433732313a20746f6b656e20616c7265616479206d696e74656400000000600082015250565b6000615cb5601c83613ea7565b9150615cc082615c7f565b602082019050919050565b60006020820190508181036000830152615ce481615ca8565b905091905056fea2646970667358221220377c91178e33f8b52cf05d7a6b6c0bcee7c14c1d2e1270e89a66dc172d6d79f764736f6c634300080f0033",
  "linkReferences": {},
  "deployedLinkReferences": {}
}