{
  "_format": "hh-sol-artifact-1",
  "contractName": "WarrantyNFT",
  "sourceName": "contracts/WarrantyNFTs.sol",
  "abi": [
    {
      "inputs": [],
      "stateMutability": "nonpayable",
      "type": "constructor"
    },
    {
      "anonymous": false,
      "inputs": [
        {
          "indexed": true,
          "internalType": "address",
          "name": "owner",
          "type": "address"
        },
        {
          "indexed": true,
          "internalType": "address",
          "name": "approved",
          "type": "address"
        },
        {
          "indexed": true,
          "internalType": "uint256",
          "name": "tokenId",
          "type": "uint256"
        }
      ],
      "name": "Approval",
      "type": "event"
    },
    {
      "anonymous": false,
      "inputs": [
        {
          "indexed": true,
          "internalType": "address",
          "name": "owner",
          "type": "address"
        },
        {
          "indexed": true,
          "internalType": "address",
          "name": "operator",
          "type": "address"
        },
        {
          "indexed": false,
          "internalType": "bool",
          "name": "approved",
          "type": "bool"
        }
      ],
      "name": "ApprovalForAll",
      "type": "event"
    },
    {
      "anonymous": false,
      "inputs": [
        {
          "indexed": true,
          "internalType": "address",
          "name": "from",
          "type": "address"
        },
        {
          "indexed": true,
          "internalType": "address",
          "name": "to",
          "type": "address"
        },
        {
          "indexed": true,
          "internalType": "uint256",
          "name": "tokenId",
          "type": "uint256"
        }
      ],
      "name": "Transfer",
      "type": "event"
    },
    {
      "inputs": [
        {
          "internalType": "string",
          "name": "_name",
          "type": "string"
        },
        {
          "internalType": "string",
          "name": "_email",
          "type": "string"
        }
      ],
      "name": "addCustomer",
      "outputs": [],
      "stateMutability": "nonpayable",
      "type": "function"
    },
    {
      "inputs": [
        {
          "internalType": "string",
          "name": "_name",
          "type": "string"
        },
        {
          "internalType": "string",
          "name": "_description",
          "type": "string"
        },
        {
          "internalType": "string",
          "name": "_imageURI",
          "type": "string"
        },
        {
          "internalType": "uint32",
          "name": "_baseWarranty",
          "type": "uint32"
        },
        {
          "internalType": "uint32",
          "name": "_loyaltyLimit",
          "type": "uint32"
        },
        {
          "internalType": "uint32",
          "name": "_loyaltyPoints",
          "type": "uint32"
        },
        {
          "internalType": "uint32",
          "name": "_timePeriod",
          "type": "uint32"
        },
        {
          "internalType": "bool",
          "name": "_soulBound",
          "type": "bool"
        }
      ],
      "name": "addItem",
      "outputs": [],
      "stateMutability": "nonpayable",
      "type": "function"
    },
    {
      "inputs": [
        {
          "internalType": "string",
          "name": "_name",
          "type": "string"
        },
        {
          "internalType": "string",
          "name": "_email",
          "type": "string"
        }
      ],
      "name": "addMerchant",
      "outputs": [],
      "stateMutability": "nonpayable",
      "type": "function"
    },
    {
      "inputs": [
        {
          "internalType": "address",
          "name": "to",
          "type": "address"
        },
        {
          "internalType": "uint256",
          "name": "tokenId",
          "type": "uint256"
        }
      ],
      "name": "approve",
      "outputs": [],
      "stateMutability": "nonpayable",
      "type": "function"
    },
    {
      "inputs": [
        {
          "internalType": "address",
          "name": "owner",
          "type": "address"
        }
      ],
      "name": "balanceOf",
      "outputs": [
        {
          "internalType": "uint256",
          "name": "",
          "type": "uint256"
        }
      ],
      "stateMutability": "view",
      "type": "function"
    },
    {
      "inputs": [
        {
          "internalType": "address",
          "name": "_to",
          "type": "address"
        }
      ],
      "name": "calculateLoyaltyPoints",
      "outputs": [
        {
          "internalType": "uint32",
          "name": "",
          "type": "uint32"
        }
      ],
      "stateMutability": "view",
      "type": "function"
    },
    {
      "inputs": [
        {
          "internalType": "string",
          "name": "_name",
          "type": "string"
        },
        {
          "internalType": "string",
          "name": "_email",
          "type": "string"
        }
      ],
      "name": "editCustomer",
      "outputs": [],
      "stateMutability": "nonpayable",
      "type": "function"
    },
    {
      "inputs": [
        {
          "internalType": "string",
          "name": "_name",
          "type": "string"
        },
        {
          "internalType": "string",
          "name": "_email",
          "type": "string"
        }
      ],
      "name": "editMerchant",
      "outputs": [],
      "stateMutability": "nonpayable",
      "type": "function"
    },
    {
      "inputs": [
        {
          "internalType": "uint32",
          "name": "_warrantyId",
          "type": "uint32"
        },
        {
          "internalType": "string",
          "name": "_repairStatus",
          "type": "string"
        }
      ],
      "name": "editWarranty",
      "outputs": [],
      "stateMutability": "nonpayable",
      "type": "function"
    },
    {
      "inputs": [
        {
          "internalType": "uint256",
          "name": "tokenId",
          "type": "uint256"
        }
      ],
      "name": "getApproved",
      "outputs": [
        {
          "internalType": "address",
          "name": "",
          "type": "address"
        }
      ],
      "stateMutability": "view",
      "type": "function"
    },
    {
      "inputs": [
        {
          "internalType": "address",
          "name": "_customerAddress",
          "type": "address"
        }
      ],
      "name": "getCustomer",
      "outputs": [
        {
          "components": [
            {
              "internalType": "string",
              "name": "name",
              "type": "string"
            },
            {
              "internalType": "string",
              "name": "email",
              "type": "string"
            }
          ],
          "internalType": "struct Users.Customer",
          "name": "",
          "type": "tuple"
        }
      ],
      "stateMutability": "view",
      "type": "function"
    },
    {
      "inputs": [
        {
          "internalType": "uint32",
          "name": "_itemId",
          "type": "uint32"
        }
      ],
      "name": "getItem",
      "outputs": [
        {
          "components": [
            {
              "internalType": "address",
              "name": "merchantAddress",
              "type": "address"
            },
            {
              "internalType": "string",
              "name": "name",
              "type": "string"
            },
            {
              "internalType": "string",
              "name": "description",
              "type": "string"
            },
            {
              "internalType": "string",
              "name": "imageURI",
              "type": "string"
            },
            {
              "internalType": "uint32",
              "name": "baseWarranty",
              "type": "uint32"
            },
            {
              "internalType": "uint32",
              "name": "loyaltyLimit",
              "type": "uint32"
            },
            {
              "internalType": "uint32",
              "name": "loyaltyPoints",
              "type": "uint32"
            },
            {
              "internalType": "uint32",
              "name": "timePeriod",
              "type": "uint32"
            },
            {
              "internalType": "bool",
              "name": "soulBound",
              "type": "bool"
            }
          ],
          "internalType": "struct Items.Item",
          "name": "item",
          "type": "tuple"
        }
      ],
      "stateMutability": "view",
      "type": "function"
    },
    {
      "inputs": [
        {
          "internalType": "address",
          "name": "_merchantAddress",
          "type": "address"
        }
      ],
      "name": "getMerchant",
      "outputs": [
        {
          "components": [
            {
              "internalType": "string",
              "name": "name",
              "type": "string"
            },
            {
              "internalType": "string",
              "name": "email",
              "type": "string"
            }
          ],
          "internalType": "struct Users.Merchant",
          "name": "",
          "type": "tuple"
        }
      ],
      "stateMutability": "view",
      "type": "function"
    },
    {
      "inputs": [],
      "name": "getMerchantWarranties",
      "outputs": [
        {
          "components": [
            {
              "internalType": "string",
              "name": "serialNumber",
              "type": "string"
            },
            {
              "internalType": "string",
              "name": "repairStatus",
              "type": "string"
            },
            {
              "internalType": "uint32",
              "name": "itemId",
              "type": "uint32"
            },
            {
              "internalType": "uint32",
              "name": "purchaseDate",
              "type": "uint32"
            },
            {
              "internalType": "uint32",
              "name": "warranty",
              "type": "uint32"
            },
            {
              "internalType": "uint32",
              "name": "loyaltyLimit",
              "type": "uint32"
            },
            {
              "internalType": "uint32",
              "name": "loyaltyPoints",
              "type": "uint32"
            },
            {
              "internalType": "bool",
              "name": "soulBound",
              "type": "bool"
            }
          ],
          "internalType": "struct WarrantyNFT.Warranty[]",
          "name": "",
          "type": "tuple[]"
        }
      ],
      "stateMutability": "view",
      "type": "function"
    },
    {
      "inputs": [],
      "name": "getMyItems",
      "outputs": [
        {
          "components": [
            {
              "internalType": "address",
              "name": "merchantAddress",
              "type": "address"
            },
            {
              "internalType": "string",
              "name": "name",
              "type": "string"
            },
            {
              "internalType": "string",
              "name": "description",
              "type": "string"
            },
            {
              "internalType": "string",
              "name": "imageURI",
              "type": "string"
            },
            {
              "internalType": "uint32",
              "name": "baseWarranty",
              "type": "uint32"
            },
            {
              "internalType": "uint32",
              "name": "loyaltyLimit",
              "type": "uint32"
            },
            {
              "internalType": "uint32",
              "name": "loyaltyPoints",
              "type": "uint32"
            },
            {
              "internalType": "uint32",
              "name": "timePeriod",
              "type": "uint32"
            },
            {
              "internalType": "bool",
              "name": "soulBound",
              "type": "bool"
            }
          ],
          "internalType": "struct Items.Item[]",
          "name": "",
          "type": "tuple[]"
        }
      ],
      "stateMutability": "view",
      "type": "function"
    },
    {
      "inputs": [],
      "name": "getMyWarranties",
      "outputs": [
        {
          "components": [
            {
              "internalType": "string",
              "name": "serialNumber",
              "type": "string"
            },
            {
              "internalType": "string",
              "name": "repairStatus",
              "type": "string"
            },
            {
              "internalType": "uint32",
              "name": "itemId",
              "type": "uint32"
            },
            {
              "internalType": "uint32",
              "name": "purchaseDate",
              "type": "uint32"
            },
            {
              "internalType": "uint32",
              "name": "warranty",
              "type": "uint32"
            },
            {
              "internalType": "uint32",
              "name": "loyaltyLimit",
              "type": "uint32"
            },
            {
              "internalType": "uint32",
              "name": "loyaltyPoints",
              "type": "uint32"
            },
            {
              "internalType": "bool",
              "name": "soulBound",
              "type": "bool"
            }
          ],
          "internalType": "struct WarrantyNFT.Warranty[]",
          "name": "",
          "type": "tuple[]"
        }
      ],
      "stateMutability": "view",
      "type": "function"
    },
    {
      "inputs": [
        {
          "internalType": "address",
          "name": "owner",
          "type": "address"
        },
        {
          "internalType": "address",
          "name": "operator",
          "type": "address"
        }
      ],
      "name": "isApprovedForAll",
      "outputs": [
        {
          "internalType": "bool",
          "name": "",
          "type": "bool"
        }
      ],
      "stateMutability": "view",
      "type": "function"
    },
    {
      "inputs": [],
      "name": "name",
      "outputs": [
        {
          "internalType": "string",
          "name": "",
          "type": "string"
        }
      ],
      "stateMutability": "view",
      "type": "function"
    },
    {
      "inputs": [
        {
          "internalType": "uint256",
          "name": "tokenId",
          "type": "uint256"
        }
      ],
      "name": "ownerOf",
      "outputs": [
        {
          "internalType": "address",
          "name": "",
          "type": "address"
        }
      ],
      "stateMutability": "view",
      "type": "function"
    },
    {
      "inputs": [
        {
          "internalType": "address",
          "name": "_to",
          "type": "address"
        },
        {
          "internalType": "string",
          "name": "_serialNumber",
          "type": "string"
        },
        {
          "internalType": "uint32",
          "name": "_itemId",
          "type": "uint32"
        }
      ],
      "name": "safeMint",
      "outputs": [],
      "stateMutability": "nonpayable",
      "type": "function"
    },
    {
      "inputs": [
        {
          "internalType": "address",
          "name": "from",
          "type": "address"
        },
        {
          "internalType": "address",
          "name": "to",
          "type": "address"
        },
        {
          "internalType": "uint256",
          "name": "tokenId",
          "type": "uint256"
        }
      ],
      "name": "safeTransferFrom",
      "outputs": [],
      "stateMutability": "nonpayable",
      "type": "function"
    },
    {
      "inputs": [
        {
          "internalType": "address",
          "name": "from",
          "type": "address"
        },
        {
          "internalType": "address",
          "name": "to",
          "type": "address"
        },
        {
          "internalType": "uint256",
          "name": "tokenId",
          "type": "uint256"
        },
        {
          "internalType": "bytes",
          "name": "data",
          "type": "bytes"
        }
      ],
      "name": "safeTransferFrom",
      "outputs": [],
      "stateMutability": "nonpayable",
      "type": "function"
    },
    {
      "inputs": [
        {
          "internalType": "address",
          "name": "operator",
          "type": "address"
        },
        {
          "internalType": "bool",
          "name": "approved",
          "type": "bool"
        }
      ],
      "name": "setApprovalForAll",
      "outputs": [],
      "stateMutability": "nonpayable",
      "type": "function"
    },
    {
      "inputs": [
        {
          "internalType": "bytes4",
          "name": "interfaceId",
          "type": "bytes4"
        }
      ],
      "name": "supportsInterface",
      "outputs": [
        {
          "internalType": "bool",
          "name": "",
          "type": "bool"
        }
      ],
      "stateMutability": "view",
      "type": "function"
    },
    {
      "inputs": [],
      "name": "symbol",
      "outputs": [
        {
          "internalType": "string",
          "name": "",
          "type": "string"
        }
      ],
      "stateMutability": "view",
      "type": "function"
    },
    {
      "inputs": [
        {
          "internalType": "uint256",
          "name": "tokenId",
          "type": "uint256"
        }
      ],
      "name": "tokenURI",
      "outputs": [
        {
          "internalType": "string",
          "name": "",
          "type": "string"
        }
      ],
      "stateMutability": "view",
      "type": "function"
    },
    {
      "inputs": [
        {
          "internalType": "address",
          "name": "from",
          "type": "address"
        },
        {
          "internalType": "address",
          "name": "to",
          "type": "address"
        },
        {
          "internalType": "uint256",
          "name": "tokenId",
          "type": "uint256"
        }
      ],
      "name": "transferFrom",
      "outputs": [],
      "stateMutability": "nonpayable",
      "type": "function"
    },
    {
      "inputs": [
        {
          "internalType": "uint256",
          "name": "tokenId",
          "type": "uint256"
        }
      ],
      "name": "warrantyRemaining",
      "outputs": [
        {
          "internalType": "uint32",
          "name": "remainingTime",
          "type": "uint32"
        }
      ],
      "stateMutability": "view",
      "type": "function"
    }
  ],
  "bytecode": "0x60806040523480156200001157600080fd5b506040518060400160405280600f81526020017f5465737457617272616e74794e465400000000000000000000000000000000008152506040518060400160405280600581526020017f54574e465400000000000000000000000000000000000000000000000000000081525081600090816200008f919062000324565b508060019081620000a1919062000324565b5050506200040b565b600081519050919050565b7f4e487b7100000000000000000000000000000000000000000000000000000000600052604160045260246000fd5b7f4e487b7100000000000000000000000000000000000000000000000000000000600052602260045260246000fd5b600060028204905060018216806200012c57607f821691505b602082108103620001425762000141620000e4565b5b50919050565b60008190508160005260206000209050919050565b60006020601f8301049050919050565b600082821b905092915050565b600060088302620001ac7fffffffffffffffffffffffffffffffffffffffffffffffffffffffffffffffff826200016d565b620001b886836200016d565b95508019841693508086168417925050509392505050565b6000819050919050565b6000819050919050565b600062000205620001ff620001f984620001d0565b620001da565b620001d0565b9050919050565b6000819050919050565b6200022183620001e4565b6200023962000230826200020c565b8484546200017a565b825550505050565b600090565b6200025062000241565b6200025d81848462000216565b505050565b5b8181101562000285576200027960008262000246565b60018101905062000263565b5050565b601f821115620002d4576200029e8162000148565b620002a9846200015d565b81016020851015620002b9578190505b620002d1620002c8856200015d565b83018262000262565b50505b505050565b600082821c905092915050565b6000620002f960001984600802620002d9565b1980831691505092915050565b6000620003148383620002e6565b9150826002028217905092915050565b6200032f82620000aa565b67ffffffffffffffff8111156200034b576200034a620000b5565b5b62000357825462000113565b6200036482828562000289565b600060209050601f8311600181146200039c576000841562000387578287015190505b62000393858262000306565b86555062000403565b601f198416620003ac8662000148565b60005b82811015620003d657848901518255600182019150602085019450602081019050620003af565b86831015620003f65784890151620003f2601f891682620002e6565b8355505b6001600288020188555050505b505050505050565b615cf1806200041b6000396000f3fe608060405234801561001057600080fd5b50600436106101c45760003560e01c806388f504d0116100f9578063b88d4fde11610097578063cb69aef611610071578063cb69aef614610513578063cb949e511461052f578063d868930c1461055f578063e985e9c51461058f576101c4565b8063b88d4fde146104a9578063c5fb207d146104c5578063c87b56dd146104e3576101c4565b8063a22cb465116100d3578063a22cb465146103fd578063a4dfb4c814610419578063a97307b114610449578063b2734eaf14610479576101c4565b806388f504d0146103a75780638c513874146103c357806395d89b41146103df576101c4565b80633d0a7cbb1161016657806367f7eefe1161014057806367f7eefe1461032157806370a082311461033f5780637eeae15e1461036f5780638292dca01461038b576101c4565b80633d0a7cbb146102b957806342842e0e146102d55780636352211e146102f1576101c4565b8063095ea7b3116101a2578063095ea7b31461024757806323b872dd146102635780633190abc01461027f578063372879911461029b576101c4565b806301ffc9a7146101c957806306fdde03146101f9578063081812fc14610217575b600080fd5b6101e360048036038101906101de9190613e3a565b6105bf565b6040516101f09190613e82565b60405180910390f35b6102016106a1565b60405161020e9190613f36565b60405180910390f35b610231600480360381019061022c9190613f8e565b610733565b60405161023e9190613ffc565b60405180910390f35b610261600480360381019061025c9190614043565b610779565b005b61027d60048036038101906102789190614083565b610890565b005b6102996004803603810190610294919061420b565b6108f0565b005b6102a3610a0d565b6040516102b09190614474565b60405180910390f35b6102d360048036038101906102ce91906144c2565b610a1d565b005b6102ef60048036038101906102ea9190614083565b610a5a565b005b61030b60048036038101906103069190613f8e565b610a7a565b6040516103189190613ffc565b60405180910390f35b610329610b2b565b6040516103369190614474565b60405180910390f35b6103596004803603810190610354919061451e565b610fa7565b604051610366919061455a565b60405180910390f35b6103896004803603810190610384919061420b565b61105e565b005b6103a560048036038101906103a0919061420b565b61117b565b005b6103c160048036038101906103bc9190614575565b611298565b005b6103dd60048036038101906103d8919061420b565b611372565b005b6103e761148f565b6040516103f49190613f36565b60405180910390f35b61041760048036038101906104129190614610565b611521565b005b610433600480360381019061042e9190614650565b611537565b604051610440919061475f565b60405180910390f35b610463600480360381019061045e9190613f8e565b611943565b6040516104709190614790565b60405180910390f35b610493600480360381019061048e919061451e565b6119c3565b6040516104a091906147ef565b60405180910390f35b6104c360048036038101906104be91906148b2565b611b40565b005b6104cd611ba2565b6040516104da9190614aca565b60405180910390f35b6104fd60048036038101906104f89190613f8e565b611bb2565b60405161050a9190613f36565b60405180910390f35b61052d60048036038101906105289190614aec565b611c1a565b005b6105496004803603810190610544919061451e565b611fa9565b6040516105569190614c3a565b60405180910390f35b6105796004803603810190610574919061451e565b612126565b6040516105869190614790565b60405180910390f35b6105a960048036038101906105a49190614c5c565b612197565b6040516105b69190613e82565b60405180910390f35b60007f80ac58cd000000000000000000000000000000000000000000000000000000007bffffffffffffffffffffffffffffffffffffffffffffffffffffffff1916827bffffffffffffffffffffffffffffffffffffffffffffffffffffffff1916148061068a57507f5b5e139f000000000000000000000000000000000000000000000000000000007bffffffffffffffffffffffffffffffffffffffffffffffffffffffff1916827bffffffffffffffffffffffffffffffffffffffffffffffffffffffff1916145b8061069a57506106998261222b565b5b9050919050565b6060600080546106b090614ccb565b80601f01602080910402602001604051908101604052809291908181526020018280546106dc90614ccb565b80156107295780601f106106fe57610100808354040283529160200191610729565b820191906000526020600020905b81548152906001019060200180831161070c57829003601f168201915b5050505050905090565b600061073e82612295565b6004600083815260200190815260200160002060009054906101000a900473ffffffffffffffffffffffffffffffffffffffff169050919050565b600061078482610a7a565b90508073ffffffffffffffffffffffffffffffffffffffff168373ffffffffffffffffffffffffffffffffffffffff16036107f4576040517f08c379a00000000000000000000000000000000000000000000000000000000081526004016107eb90614d6e565b60405180910390fd5b8073ffffffffffffffffffffffffffffffffffffffff166108136122e0565b73ffffffffffffffffffffffffffffffffffffffff16148061084257506108418161083c6122e0565b612197565b5b610881576040517f08c379a000000000000000000000000000000000000000000000000000000000815260040161087890614e00565b60405180910390fd5b61088b83836122e8565b505050565b6108a161089b6122e0565b826123a1565b6108e0576040517f08c379a00000000000000000000000000000000000000000000000000000000081526004016108d790614e92565b60405180910390fd5b6108eb838383612436565b505050565b6108f98261269c565b610938576040517f08c379a000000000000000000000000000000000000000000000000000000000815260040161092f90614efe565b60405180910390fd5b6109418161269c565b610980576040517f08c379a000000000000000000000000000000000000000000000000000000000815260040161097790614f6a565b60405180910390fd5b6000339050604051806040016040528084815260200183815250600660008373ffffffffffffffffffffffffffffffffffffffff1673ffffffffffffffffffffffffffffffffffffffff16815260200190815260200160002060008201518160000190816109ee9190615136565b506020820151816001019081610a049190615136565b50905050505050565b6060610a18336126f3565b905090565b8060098363ffffffff1681548110610a3857610a37615208565b5b90600052602060002090600302016001019081610a559190615136565b505050565b610a7583838360405180602001604052806000815250611b40565b505050565b6000806002600084815260200190815260200160002060009054906101000a900473ffffffffffffffffffffffffffffffffffffffff169050600073ffffffffffffffffffffffffffffffffffffffff168173ffffffffffffffffffffffffffffffffffffffff1603610b22576040517f08c379a0000000000000000000000000000000000000000000000000000000008152600401610b1990615283565b60405180910390fd5b80915050919050565b60606000805b600980549050811015610c13573373ffffffffffffffffffffffffffffffffffffffff16600860098381548110610b6b57610b6a615208565b5b906000526020600020906003020160020160009054906101000a900463ffffffff1663ffffffff1681548110610ba457610ba3615208565b5b906000526020600020906005020160000160009054906101000a900473ffffffffffffffffffffffffffffffffffffffff1673ffffffffffffffffffffffffffffffffffffffff1603610c00578180610bfc906152d2565b9250505b8080610c0b906152d2565b915050610b31565b5060008167ffffffffffffffff811115610c3057610c2f6140e0565b5b604051908082528060200260200182016040528015610c6957816020015b610c56613cb9565b815260200190600190039081610c4e5790505b5090506000915060005b600980549050811015610f9e573373ffffffffffffffffffffffffffffffffffffffff16600860098381548110610cad57610cac615208565b5b906000526020600020906003020160020160009054906101000a900463ffffffff1663ffffffff1681548110610ce657610ce5615208565b5b906000526020600020906005020160000160009054906101000a900473ffffffffffffffffffffffffffffffffffffffff1673ffffffffffffffffffffffffffffffffffffffff1603610f8b5760098181548110610d4757610d46615208565b5b906000526020600020906003020160405180610100016040529081600082018054610d7190614ccb565b80601f0160208091040260200160405190810160405280929190818152602001828054610d9d90614ccb565b8015610dea5780601f10610dbf57610100808354040283529160200191610dea565b820191906000526020600020905b815481529060010190602001808311610dcd57829003601f168201915b50505050508152602001600182018054610e0390614ccb565b80601f0160208091040260200160405190810160405280929190818152602001828054610e2f90614ccb565b8015610e7c5780601f10610e5157610100808354040283529160200191610e7c565b820191906000526020600020905b815481529060010190602001808311610e5f57829003601f168201915b505050505081526020016002820160009054906101000a900463ffffffff1663ffffffff1663ffffffff1681526020016002820160049054906101000a900463ffffffff1663ffffffff1663ffffffff1681526020016002820160089054906101000a900463ffffffff1663ffffffff1663ffffffff16815260200160028201600c9054906101000a900463ffffffff1663ffffffff1663ffffffff1681526020016002820160109054906101000a900463ffffffff1663ffffffff1663ffffffff1681526020016002820160149054906101000a900460ff161515151581525050828481518110610f7157610f70615208565b5b60200260200101819052508280610f87906152d2565b9350505b8080610f96906152d2565b915050610c73565b50809250505090565b60008073ffffffffffffffffffffffffffffffffffffffff168273ffffffffffffffffffffffffffffffffffffffff1603611017576040517f08c379a000000000000000000000000000000000000000000000000000000000815260040161100e9061538c565b60405180910390fd5b600360008373ffffffffffffffffffffffffffffffffffffffff1673ffffffffffffffffffffffffffffffffffffffff168152602001908152602001600020549050919050565b6110678261269c565b6110a6576040517f08c379a000000000000000000000000000000000000000000000000000000000815260040161109d90614efe565b60405180910390fd5b6110af8161269c565b6110ee576040517f08c379a00000000000000000000000000000000000000000000000000000000081526004016110e590614f6a565b60405180910390fd5b6000339050604051806040016040528084815260200183815250600760008373ffffffffffffffffffffffffffffffffffffffff1673ffffffffffffffffffffffffffffffffffffffff168152602001908152602001600020600082015181600001908161115c9190615136565b5060208201518160010190816111729190615136565b50905050505050565b6111848261269c565b6111c3576040517f08c379a00000000000000000000000000000000000000000000000000000000081526004016111ba90614efe565b60405180910390fd5b6111cc8161269c565b61120b576040517f08c379a000000000000000000000000000000000000000000000000000000000815260040161120290614f6a565b60405180910390fd5b6000339050604051806040016040528084815260200183815250600760008373ffffffffffffffffffffffffffffffffffffffff1673ffffffffffffffffffffffffffffffffffffffff16815260200190815260200160002060008201518160000190816112799190615136565b50602082015181600101908161128f9190615136565b50905050505050565b60088163ffffffff16815481106112b2576112b1615208565b5b906000526020600020906005020160000160009054906101000a900473ffffffffffffffffffffffffffffffffffffffff168073ffffffffffffffffffffffffffffffffffffffff163373ffffffffffffffffffffffffffffffffffffffff1614611352576040517f08c379a0000000000000000000000000000000000000000000000000000000008152600401611349906153f8565b60405180910390fd5b600061135f838587612a17565b905061136b8582612e04565b5050505050565b61137b8261269c565b6113ba576040517f08c379a00000000000000000000000000000000000000000000000000000000081526004016113b190614efe565b60405180910390fd5b6113c38161269c565b611402576040517f08c379a00000000000000000000000000000000000000000000000000000000081526004016113f990614f6a565b60405180910390fd5b6000339050604051806040016040528084815260200183815250600660008373ffffffffffffffffffffffffffffffffffffffff1673ffffffffffffffffffffffffffffffffffffffff16815260200190815260200160002060008201518160000190816114709190615136565b5060208201518160010190816114869190615136565b50905050505050565b60606001805461149e90614ccb565b80601f01602080910402602001604051908101604052809291908181526020018280546114ca90614ccb565b80156115175780601f106114ec57610100808354040283529160200191611517565b820191906000526020600020905b8154815290600101906020018083116114fa57829003601f168201915b5050505050905090565b61153361152c6122e0565b8383612e22565b5050565b61153f613d1e565b8163ffffffff16600880549050811061158d576040517f08c379a000000000000000000000000000000000000000000000000000000000815260040161158490615464565b60405180910390fd5b60088363ffffffff16815481106115a7576115a6615208565b5b906000526020600020906005020160000160009054906101000a900473ffffffffffffffffffffffffffffffffffffffff168073ffffffffffffffffffffffffffffffffffffffff163373ffffffffffffffffffffffffffffffffffffffff1614611647576040517f08c379a000000000000000000000000000000000000000000000000000000000815260040161163e906153f8565b60405180910390fd5b60088463ffffffff168154811061166157611660615208565b5b9060005260206000209060050201604051806101200160405290816000820160009054906101000a900473ffffffffffffffffffffffffffffffffffffffff1673ffffffffffffffffffffffffffffffffffffffff1673ffffffffffffffffffffffffffffffffffffffff1681526020016001820180546116e190614ccb565b80601f016020809104026020016040519081016040528092919081815260200182805461170d90614ccb565b801561175a5780601f1061172f5761010080835404028352916020019161175a565b820191906000526020600020905b81548152906001019060200180831161173d57829003601f168201915b5050505050815260200160028201805461177390614ccb565b80601f016020809104026020016040519081016040528092919081815260200182805461179f90614ccb565b80156117ec5780601f106117c1576101008083540402835291602001916117ec565b820191906000526020600020905b8154815290600101906020018083116117cf57829003601f168201915b5050505050815260200160038201805461180590614ccb565b80601f016020809104026020016040519081016040528092919081815260200182805461183190614ccb565b801561187e5780601f106118535761010080835404028352916020019161187e565b820191906000526020600020905b81548152906001019060200180831161186157829003601f168201915b505050505081526020016004820160009054906101000a900463ffffffff1663ffffffff1663ffffffff1681526020016004820160049054906101000a900463ffffffff1663ffffffff1663ffffffff1681526020016004820160089054906101000a900463ffffffff1663ffffffff1663ffffffff16815260200160048201600c9054906101000a900463ffffffff1663ffffffff1663ffffffff1681526020016004820160109054906101000a900460ff16151515158152505092505050919050565b60008061194f83612f8e565b9050600081606001519050600062278d008360a0015161196f9190615484565b62278d0084608001516119829190615484565b8361198d91906154c2565b61199791906154c2565b9050600062278d0042836119ab91906154fc565b6119b5919061555f565b905080945050505050919050565b6119cb613d9a565b600760008373ffffffffffffffffffffffffffffffffffffffff1673ffffffffffffffffffffffffffffffffffffffff168152602001908152602001600020604051806040016040529081600082018054611a2590614ccb565b80601f0160208091040260200160405190810160405280929190818152602001828054611a5190614ccb565b8015611a9e5780601f10611a7357610100808354040283529160200191611a9e565b820191906000526020600020905b815481529060010190602001808311611a8157829003601f168201915b50505050508152602001600182018054611ab790614ccb565b80601f0160208091040260200160405190810160405280929190818152602001828054611ae390614ccb565b8015611b305780601f10611b0557610100808354040283529160200191611b30565b820191906000526020600020905b815481529060010190602001808311611b1357829003601f168201915b5050505050815250509050919050565b611b51611b4b6122e0565b836123a1565b611b90576040517f08c379a0000000000000000000000000000000000000000000000000000000008152600401611b8790614e92565b60405180910390fd5b611b9c848484846131c8565b50505050565b6060611bad33613224565b905090565b6060611bbd82612295565b6000611bc76136ee565b90506000815111611be75760405180602001604052806000815250611c12565b80611bf184613705565b604051602001611c029291906155cc565b6040516020818303038152906040525b915050919050565b611ced600760003373ffffffffffffffffffffffffffffffffffffffff1673ffffffffffffffffffffffffffffffffffffffff1681526020019081526020016000206000018054611c6a90614ccb565b80601f0160208091040260200160405190810160405280929190818152602001828054611c9690614ccb565b8015611ce35780601f10611cb857610100808354040283529160200191611ce3565b820191906000526020600020905b815481529060010190602001808311611cc657829003601f168201915b505050505061269c565b611d2c576040517f08c379a0000000000000000000000000000000000000000000000000000000008152600401611d239061563c565b60405180910390fd5b611d358861269c565b611d74576040517f08c379a0000000000000000000000000000000000000000000000000000000008152600401611d6b906156a8565b60405180910390fd5b611d7d8761269c565b611dbc576040517f08c379a0000000000000000000000000000000000000000000000000000000008152600401611db390615714565b60405180910390fd5b60086040518061012001604052803373ffffffffffffffffffffffffffffffffffffffff1681526020018a81526020018981526020018881526020018763ffffffff1681526020018663ffffffff1681526020018563ffffffff1681526020018463ffffffff168152602001831515815250908060018154018082558091505060019003906000526020600020906005020160009091909190915060008201518160000160006101000a81548173ffffffffffffffffffffffffffffffffffffffff021916908373ffffffffffffffffffffffffffffffffffffffff1602179055506020820151816001019081611eb39190615136565b506040820151816002019081611ec99190615136565b506060820151816003019081611edf9190615136565b5060808201518160040160006101000a81548163ffffffff021916908363ffffffff16021790555060a08201518160040160046101000a81548163ffffffff021916908363ffffffff16021790555060c08201518160040160086101000a81548163ffffffff021916908363ffffffff16021790555060e082015181600401600c6101000a81548163ffffffff021916908363ffffffff1602179055506101008201518160040160106101000a81548160ff02191690831515021790555050505050505050505050565b611fb1613db4565b600660008373ffffffffffffffffffffffffffffffffffffffff1673ffffffffffffffffffffffffffffffffffffffff16815260200190815260200160002060405180604001604052908160008201805461200b90614ccb565b80601f016020809104026020016040519081016040528092919081815260200182805461203790614ccb565b80156120845780601f1061205957610100808354040283529160200191612084565b820191906000526020600020905b81548152906001019060200180831161206757829003601f168201915b5050505050815260200160018201805461209d90614ccb565b80601f01602080910402602001604051908101604052809291908181526020018280546120c990614ccb565b80156121165780601f106120eb57610100808354040283529160200191612116565b820191906000526020600020905b8154815290600101906020018083116120f957829003601f168201915b5050505050815250509050919050565b600080612132836126f3565b90506000805b82518110156121805782818151811061215457612153615208565b5b602002602001015160c001518261216b91906154c2565b91508080612178906152d2565b915050612138565b50600a8161218e919061555f565b92505050919050565b6000600560008473ffffffffffffffffffffffffffffffffffffffff1673ffffffffffffffffffffffffffffffffffffffff16815260200190815260200160002060008373ffffffffffffffffffffffffffffffffffffffff1673ffffffffffffffffffffffffffffffffffffffff16815260200190815260200160002060009054906101000a900460ff16905092915050565b60007f01ffc9a7000000000000000000000000000000000000000000000000000000007bffffffffffffffffffffffffffffffffffffffffffffffffffffffff1916827bffffffffffffffffffffffffffffffffffffffffffffffffffffffff1916149050919050565b61229e81613865565b6122dd576040517f08c379a00000000000000000000000000000000000000000000000000000000081526004016122d490615283565b60405180910390fd5b50565b600033905090565b816004600083815260200190815260200160002060006101000a81548173ffffffffffffffffffffffffffffffffffffffff021916908373ffffffffffffffffffffffffffffffffffffffff160217905550808273ffffffffffffffffffffffffffffffffffffffff1661235b83610a7a565b73ffffffffffffffffffffffffffffffffffffffff167f8c5be1e5ebec7d5bd14f71427d1e84f3dd0314c0f7b2291e5b200ac8c7c3b92560405160405180910390a45050565b6000806123ad83610a7a565b90508073ffffffffffffffffffffffffffffffffffffffff168473ffffffffffffffffffffffffffffffffffffffff1614806123ef57506123ee8185612197565b5b8061242d57508373ffffffffffffffffffffffffffffffffffffffff1661241584610733565b73ffffffffffffffffffffffffffffffffffffffff16145b91505092915050565b8273ffffffffffffffffffffffffffffffffffffffff1661245682610a7a565b73ffffffffffffffffffffffffffffffffffffffff16146124ac576040517f08c379a00000000000000000000000000000000000000000000000000000000081526004016124a3906157a6565b60405180910390fd5b600073ffffffffffffffffffffffffffffffffffffffff168273ffffffffffffffffffffffffffffffffffffffff160361251b576040517f08c379a000000000000000000000000000000000000000000000000000000000815260040161251290615838565b60405180910390fd5b6125268383836138d1565b6125316000826122e8565b6001600360008573ffffffffffffffffffffffffffffffffffffffff1673ffffffffffffffffffffffffffffffffffffffff16815260200190815260200160002060008282546125819190615858565b925050819055506001600360008473ffffffffffffffffffffffffffffffffffffffff1673ffffffffffffffffffffffffffffffffffffffff16815260200190815260200160002060008282546125d8919061588c565b92505081905550816002600083815260200190815260200160002060006101000a81548173ffffffffffffffffffffffffffffffffffffffff021916908373ffffffffffffffffffffffffffffffffffffffff160217905550808273ffffffffffffffffffffffffffffffffffffffff168473ffffffffffffffffffffffffffffffffffffffff167fddf252ad1be2c89b69c2b068fc378daa952ba7f163c4a11628f55a4df523b3ef60405160405180910390a46126978383836138d6565b505050565b60006040516020016126ad90615908565b60405160208183030381529060405280519060200120826040516020016126d4919061591d565b6040516020818303038152906040528051906020012014159050919050565b6060600061270083610fa7565b67ffffffffffffffff811115612719576127186140e0565b5b60405190808252806020026020018201604052801561275257816020015b61273f613cb9565b8152602001906001900390816127375790505b5090506000805b600980549050811015612a0c573373ffffffffffffffffffffffffffffffffffffffff1661278682610a7a565b73ffffffffffffffffffffffffffffffffffffffff16036129f957600981815481106127b5576127b4615208565b5b9060005260206000209060030201604051806101000160405290816000820180546127df90614ccb565b80601f016020809104026020016040519081016040528092919081815260200182805461280b90614ccb565b80156128585780601f1061282d57610100808354040283529160200191612858565b820191906000526020600020905b81548152906001019060200180831161283b57829003601f168201915b5050505050815260200160018201805461287190614ccb565b80601f016020809104026020016040519081016040528092919081815260200182805461289d90614ccb565b80156128ea5780601f106128bf576101008083540402835291602001916128ea565b820191906000526020600020905b8154815290600101906020018083116128cd57829003601f168201915b505050505081526020016002820160009054906101000a900463ffffffff1663ffffffff1663ffffffff1681526020016002820160049054906101000a900463ffffffff1663ffffffff1663ffffffff1681526020016002820160089054906101000a900463ffffffff1663ffffffff1663ffffffff16815260200160028201600c9054906101000a900463ffffffff1663ffffffff1663ffffffff1681526020016002820160109054906101000a900463ffffffff1663ffffffff1663ffffffff1681526020016002820160149054906101000a900460ff1615151515815250508383815181106129df576129de615208565b5b602002602001018190525081806129f5906152d2565b9250505b8080612a04906152d2565b915050612759565b508192505050919050565b600060088463ffffffff1681548110612a3357612a32615208565b5b906000526020600020906005020160000160009054906101000a900473ffffffffffffffffffffffffffffffffffffffff168073ffffffffffffffffffffffffffffffffffffffff163373ffffffffffffffffffffffffffffffffffffffff1614612ad3576040517f08c379a0000000000000000000000000000000000000000000000000000000008152600401612aca906153f8565b60405180910390fd5b612adc8461269c565b612b1b576040517f08c379a0000000000000000000000000000000000000000000000000000000008152600401612b1290615980565b60405180910390fd5b600060098054905090506000612b3085612126565b905060008160088963ffffffff1681548110612b4f57612b4e615208565b5b906000526020600020906005020160040160049054906101000a900463ffffffff16612b7b9190615484565b905060096040518061010001604052808981526020016040518060400160405280600781526020017f576f726b696e670000000000000000000000000000000000000000000000000081525081526020018a63ffffffff1681526020014263ffffffff16815260200160088b63ffffffff1681548110612bfe57612bfd615208565b5b906000526020600020906005020160040160009054906101000a900463ffffffff1663ffffffff1681526020018363ffffffff16815260200160088b63ffffffff1681548110612c5157612c50615208565b5b906000526020600020906005020160040160089054906101000a900463ffffffff1663ffffffff16815260200160088b63ffffffff1681548110612c9857612c97615208565b5b906000526020600020906005020160040160109054906101000a900460ff16151581525090806001815401808255809150506001900390600052602060002090600302016000909190919091506000820151816000019081612cfa9190615136565b506020820151816001019081612d109190615136565b5060408201518160020160006101000a81548163ffffffff021916908363ffffffff16021790555060608201518160020160046101000a81548163ffffffff021916908363ffffffff16021790555060808201518160020160086101000a81548163ffffffff021916908363ffffffff16021790555060a082015181600201600c6101000a81548163ffffffff021916908363ffffffff16021790555060c08201518160020160106101000a81548163ffffffff021916908363ffffffff16021790555060e08201518160020160146101000a81548160ff0219169083151502179055505050829450505050509392505050565b612e1e8282604051806020016040528060008152506138db565b5050565b8173ffffffffffffffffffffffffffffffffffffffff168373ffffffffffffffffffffffffffffffffffffffff1603612e90576040517f08c379a0000000000000000000000000000000000000000000000000000000008152600401612e87906159ec565b60405180910390fd5b80600560008573ffffffffffffffffffffffffffffffffffffffff1673ffffffffffffffffffffffffffffffffffffffff16815260200190815260200160002060008473ffffffffffffffffffffffffffffffffffffffff1673ffffffffffffffffffffffffffffffffffffffff16815260200190815260200160002060006101000a81548160ff0219169083151502179055508173ffffffffffffffffffffffffffffffffffffffff168373ffffffffffffffffffffffffffffffffffffffff167f17307eab39ab6107e8899845ad3d59bd9653f200f220920489ca2b5937696c3183604051612f819190613e82565b60405180910390a3505050565b612f96613cb9565b60098281548110612faa57612fa9615208565b5b906000526020600020906003020160405180610100016040529081600082018054612fd490614ccb565b80601f016020809104026020016040519081016040528092919081815260200182805461300090614ccb565b801561304d5780601f106130225761010080835404028352916020019161304d565b820191906000526020600020905b81548152906001019060200180831161303057829003601f168201915b5050505050815260200160018201805461306690614ccb565b80601f016020809104026020016040519081016040528092919081815260200182805461309290614ccb565b80156130df5780601f106130b4576101008083540402835291602001916130df565b820191906000526020600020905b8154815290600101906020018083116130c257829003601f168201915b505050505081526020016002820160009054906101000a900463ffffffff1663ffffffff1663ffffffff1681526020016002820160049054906101000a900463ffffffff1663ffffffff1663ffffffff1681526020016002820160089054906101000a900463ffffffff1663ffffffff1663ffffffff16815260200160028201600c9054906101000a900463ffffffff1663ffffffff1663ffffffff1681526020016002820160109054906101000a900463ffffffff1663ffffffff1663ffffffff1681526020016002820160149054906101000a900460ff1615151515815250509050919050565b6131d3848484612436565b6131df84848484613936565b61321e576040517f08c379a000000000000000000000000000000000000000000000000000000000815260040161321590615a7e565b60405180910390fd5b50505050565b60606000805b6008805490508110156132d2578373ffffffffffffffffffffffffffffffffffffffff166008828154811061326257613261615208565b5b906000526020600020906005020160000160009054906101000a900473ffffffffffffffffffffffffffffffffffffffff1673ffffffffffffffffffffffffffffffffffffffff16036132bf576001826132bc919061588c565b91505b80806132ca906152d2565b91505061322a565b5060008167ffffffffffffffff8111156132ef576132ee6140e0565b5b60405190808252806020026020018201604052801561332857816020015b613315613d1e565b81526020019060019003908161330d5790505b5090506000805b6008805490508110156136e2578573ffffffffffffffffffffffffffffffffffffffff166008828154811061336757613366615208565b5b906000526020600020906005020160000160009054906101000a900473ffffffffffffffffffffffffffffffffffffffff1673ffffffffffffffffffffffffffffffffffffffff16036136cf57600881815481106133c8576133c7615208565b5b9060005260206000209060050201604051806101200160405290816000820160009054906101000a900473ffffffffffffffffffffffffffffffffffffffff1673ffffffffffffffffffffffffffffffffffffffff1673ffffffffffffffffffffffffffffffffffffffff16815260200160018201805461344890614ccb565b80601f016020809104026020016040519081016040528092919081815260200182805461347490614ccb565b80156134c15780601f10613496576101008083540402835291602001916134c1565b820191906000526020600020905b8154815290600101906020018083116134a457829003601f168201915b505050505081526020016002820180546134da90614ccb565b80601f016020809104026020016040519081016040528092919081815260200182805461350690614ccb565b80156135535780601f1061352857610100808354040283529160200191613553565b820191906000526020600020905b81548152906001019060200180831161353657829003601f168201915b5050505050815260200160038201805461356c90614ccb565b80601f016020809104026020016040519081016040528092919081815260200182805461359890614ccb565b80156135e55780601f106135ba576101008083540402835291602001916135e5565b820191906000526020600020905b8154815290600101906020018083116135c857829003601f168201915b505050505081526020016004820160009054906101000a900463ffffffff1663ffffffff1663ffffffff1681526020016004820160049054906101000a900463ffffffff1663ffffffff1663ffffffff1681526020016004820160089054906101000a900463ffffffff1663ffffffff1663ffffffff16815260200160048201600c9054906101000a900463ffffffff1663ffffffff1663ffffffff1681526020016004820160109054906101000a900460ff1615151515815250508383815181106136b4576136b3615208565b5b60200260200101819052506001826136cc919061588c565b91505b80806136da906152d2565b91505061332f565b50819350505050919050565b606060405180602001604052806000815250905090565b60606000820361374c576040518060400160405280600181526020017f30000000000000000000000000000000000000000000000000000000000000008152509050613860565b600082905060005b6000821461377e578080613767906152d2565b915050600a826137779190615a9e565b9150613754565b60008167ffffffffffffffff81111561379a576137996140e0565b5b6040519080825280601f01601f1916602001820160405280156137cc5781602001600182028036833780820191505090505b5090505b60008514613859576001826137e59190615858565b9150600a856137f49190615acf565b6030613800919061588c565b60f81b81838151811061381657613815615208565b5b60200101907effffffffffffffffffffffffffffffffffffffffffffffffffffffffffffff1916908160001a905350600a856138529190615a9e565b94506137d0565b8093505050505b919050565b60008073ffffffffffffffffffffffffffffffffffffffff166002600084815260200190815260200160002060009054906101000a900473ffffffffffffffffffffffffffffffffffffffff1673ffffffffffffffffffffffffffffffffffffffff1614159050919050565b505050565b505050565b6138e58383613abd565b6138f26000848484613936565b613931576040517f08c379a000000000000000000000000000000000000000000000000000000000815260040161392890615a7e565b60405180910390fd5b505050565b60006139578473ffffffffffffffffffffffffffffffffffffffff16613c96565b15613ab0578373ffffffffffffffffffffffffffffffffffffffff1663150b7a026139806122e0565b8786866040518563ffffffff1660e01b81526004016139a29493929190615b55565b6020604051808303816000875af19250505080156139de57506040513d601f19601f820116820180604052508101906139db9190615bb6565b60015b613a60573d8060008114613a0e576040519150601f19603f3d011682016040523d82523d6000602084013e613a13565b606091505b506000815103613a58576040517f08c379a0000000000000000000000000000000000000000000000000000000008152600401613a4f90615a7e565b60405180910390fd5b805181602001fd5b63150b7a0260e01b7bffffffffffffffffffffffffffffffffffffffffffffffffffffffff1916817bffffffffffffffffffffffffffffffffffffffffffffffffffffffff191614915050613ab5565b600190505b949350505050565b600073ffffffffffffffffffffffffffffffffffffffff168273ffffffffffffffffffffffffffffffffffffffff1603613b2c576040517f08c379a0000000000000000000000000000000000000000000000000000000008152600401613b2390615c2f565b60405180910390fd5b613b3581613865565b15613b75576040517f08c379a0000000000000000000000000000000000000000000000000000000008152600401613b6c90615c9b565b60405180910390fd5b613b81600083836138d1565b6001600360008473ffffffffffffffffffffffffffffffffffffffff1673ffffffffffffffffffffffffffffffffffffffff1681526020019081526020016000206000828254613bd1919061588c565b92505081905550816002600083815260200190815260200160002060006101000a81548173ffffffffffffffffffffffffffffffffffffffff021916908373ffffffffffffffffffffffffffffffffffffffff160217905550808273ffffffffffffffffffffffffffffffffffffffff16600073ffffffffffffffffffffffffffffffffffffffff167fddf252ad1be2c89b69c2b068fc378daa952ba7f163c4a11628f55a4df523b3ef60405160405180910390a4613c92600083836138d6565b5050565b6000808273ffffffffffffffffffffffffffffffffffffffff163b119050919050565b6040518061010001604052806060815260200160608152602001600063ffffffff168152602001600063ffffffff168152602001600063ffffffff168152602001600063ffffffff168152602001600063ffffffff1681526020016000151581525090565b604051806101200160405280600073ffffffffffffffffffffffffffffffffffffffff168152602001606081526020016060815260200160608152602001600063ffffffff168152602001600063ffffffff168152602001600063ffffffff168152602001600063ffffffff1681526020016000151581525090565b604051806040016040528060608152602001606081525090565b604051806040016040528060608152602001606081525090565b6000604051905090565b600080fd5b600080fd5b60007fffffffff0000000000000000000000000000000000000000000000000000000082169050919050565b613e1781613de2565b8114613e2257600080fd5b50565b600081359050613e3481613e0e565b92915050565b600060208284031215613e5057613e4f613dd8565b5b6000613e5e84828501613e25565b91505092915050565b60008115159050919050565b613e7c81613e67565b82525050565b6000602082019050613e976000830184613e73565b92915050565b600081519050919050565b600082825260208201905092915050565b60005b83811015613ed7578082015181840152602081019050613ebc565b83811115613ee6576000848401525b50505050565b6000601f19601f8301169050919050565b6000613f0882613e9d565b613f128185613ea8565b9350613f22818560208601613eb9565b613f2b81613eec565b840191505092915050565b60006020820190508181036000830152613f508184613efd565b905092915050565b6000819050919050565b613f6b81613f58565b8114613f7657600080fd5b50565b600081359050613f8881613f62565b92915050565b600060208284031215613fa457613fa3613dd8565b5b6000613fb284828501613f79565b91505092915050565b600073ffffffffffffffffffffffffffffffffffffffff82169050919050565b6000613fe682613fbb565b9050919050565b613ff681613fdb565b82525050565b60006020820190506140116000830184613fed565b92915050565b61402081613fdb565b811461402b57600080fd5b50565b60008135905061403d81614017565b92915050565b6000806040838503121561405a57614059613dd8565b5b60006140688582860161402e565b925050602061407985828601613f79565b9150509250929050565b60008060006060848603121561409c5761409b613dd8565b5b60006140aa8682870161402e565b93505060206140bb8682870161402e565b92505060406140cc86828701613f79565b9150509250925092565b600080fd5b600080fd5b7f4e487b7100000000000000000000000000000000000000000000000000000000600052604160045260246000fd5b61411882613eec565b810181811067ffffffffffffffff82111715614137576141366140e0565b5b80604052505050565b600061414a613dce565b9050614156828261410f565b919050565b600067ffffffffffffffff821115614176576141756140e0565b5b61417f82613eec565b9050602081019050919050565b82818337600083830152505050565b60006141ae6141a98461415b565b614140565b9050828152602081018484840111156141ca576141c96140db565b5b6141d584828561418c565b509392505050565b600082601f8301126141f2576141f16140d6565b5b813561420284826020860161419b565b91505092915050565b6000806040838503121561422257614221613dd8565b5b600083013567ffffffffffffffff8111156142405761423f613ddd565b5b61424c858286016141dd565b925050602083013567ffffffffffffffff81111561426d5761426c613ddd565b5b614279858286016141dd565b9150509250929050565b600081519050919050565b600082825260208201905092915050565b6000819050602082019050919050565b600082825260208201905092915050565b60006142cb82613e9d565b6142d581856142af565b93506142e5818560208601613eb9565b6142ee81613eec565b840191505092915050565b600063ffffffff82169050919050565b614312816142f9565b82525050565b61432181613e67565b82525050565b600061010083016000830151848203600086015261434582826142c0565b9150506020830151848203602086015261435f82826142c0565b91505060408301516143746040860182614309565b5060608301516143876060860182614309565b50608083015161439a6080860182614309565b5060a08301516143ad60a0860182614309565b5060c08301516143c060c0860182614309565b5060e08301516143d360e0860182614318565b508091505092915050565b60006143ea8383614327565b905092915050565b6000602082019050919050565b600061440a82614283565b614414818561428e565b9350836020820285016144268561429f565b8060005b85811015614462578484038952815161444385826143de565b945061444e836143f2565b925060208a0199505060018101905061442a565b50829750879550505050505092915050565b6000602082019050818103600083015261448e81846143ff565b905092915050565b61449f816142f9565b81146144aa57600080fd5b50565b6000813590506144bc81614496565b92915050565b600080604083850312156144d9576144d8613dd8565b5b60006144e7858286016144ad565b925050602083013567ffffffffffffffff81111561450857614507613ddd565b5b614514858286016141dd565b9150509250929050565b60006020828403121561453457614533613dd8565b5b60006145428482850161402e565b91505092915050565b61455481613f58565b82525050565b600060208201905061456f600083018461454b565b92915050565b60008060006060848603121561458e5761458d613dd8565b5b600061459c8682870161402e565b935050602084013567ffffffffffffffff8111156145bd576145bc613ddd565b5b6145c9868287016141dd565b92505060406145da868287016144ad565b9150509250925092565b6145ed81613e67565b81146145f857600080fd5b50565b60008135905061460a816145e4565b92915050565b6000806040838503121561462757614626613dd8565b5b60006146358582860161402e565b9250506020614646858286016145fb565b9150509250929050565b60006020828403121561466657614665613dd8565b5b6000614674848285016144ad565b91505092915050565b61468681613fdb565b82525050565b6000610120830160008301516146a5600086018261467d565b50602083015184820360208601526146bd82826142c0565b915050604083015184820360408601526146d782826142c0565b915050606083015184820360608601526146f182826142c0565b91505060808301516147066080860182614309565b5060a083015161471960a0860182614309565b5060c083015161472c60c0860182614309565b5060e083015161473f60e0860182614309565b50610100830151614754610100860182614318565b508091505092915050565b60006020820190508181036000830152614779818461468c565b905092915050565b61478a816142f9565b82525050565b60006020820190506147a56000830184614781565b92915050565b600060408301600083015184820360008601526147c882826142c0565b915050602083015184820360208601526147e282826142c0565b9150508091505092915050565b6000602082019050818103600083015261480981846147ab565b905092915050565b600067ffffffffffffffff82111561482c5761482b6140e0565b5b61483582613eec565b9050602081019050919050565b600061485561485084614811565b614140565b905082815260208101848484011115614871576148706140db565b5b61487c84828561418c565b509392505050565b600082601f830112614899576148986140d6565b5b81356148a9848260208601614842565b91505092915050565b600080600080608085870312156148cc576148cb613dd8565b5b60006148da8782880161402e565b94505060206148eb8782880161402e565b93505060406148fc87828801613f79565b925050606085013567ffffffffffffffff81111561491d5761491c613ddd565b5b61492987828801614884565b91505092959194509250565b600081519050919050565b600082825260208201905092915050565b6000819050602082019050919050565b60006101208301600083015161497a600086018261467d565b506020830151848203602086015261499282826142c0565b915050604083015184820360408601526149ac82826142c0565b915050606083015184820360608601526149c682826142c0565b91505060808301516149db6080860182614309565b5060a08301516149ee60a0860182614309565b5060c0830151614a0160c0860182614309565b5060e0830151614a1460e0860182614309565b50610100830151614a29610100860182614318565b508091505092915050565b6000614a408383614961565b905092915050565b6000602082019050919050565b6000614a6082614935565b614a6a8185614940565b935083602082028501614a7c85614951565b8060005b85811015614ab85784840389528151614a998582614a34565b9450614aa483614a48565b925060208a01995050600181019050614a80565b50829750879550505050505092915050565b60006020820190508181036000830152614ae48184614a55565b905092915050565b600080600080600080600080610100898b031215614b0d57614b0c613dd8565b5b600089013567ffffffffffffffff811115614b2b57614b2a613ddd565b5b614b378b828c016141dd565b985050602089013567ffffffffffffffff811115614b5857614b57613ddd565b5b614b648b828c016141dd565b975050604089013567ffffffffffffffff811115614b8557614b84613ddd565b5b614b918b828c016141dd565b9650506060614ba28b828c016144ad565b9550506080614bb38b828c016144ad565b94505060a0614bc48b828c016144ad565b93505060c0614bd58b828c016144ad565b92505060e0614be68b828c016145fb565b9150509295985092959890939650565b60006040830160008301518482036000860152614c1382826142c0565b91505060208301518482036020860152614c2d82826142c0565b9150508091505092915050565b60006020820190508181036000830152614c548184614bf6565b905092915050565b60008060408385031215614c7357614c72613dd8565b5b6000614c818582860161402e565b9250506020614c928582860161402e565b9150509250929050565b7f4e487b7100000000000000000000000000000000000000000000000000000000600052602260045260246000fd5b60006002820490506001821680614ce357607f821691505b602082108103614cf657614cf5614c9c565b5b50919050565b7f4552433732313a20617070726f76616c20746f2063757272656e74206f776e6560008201527f7200000000000000000000000000000000000000000000000000000000000000602082015250565b6000614d58602183613ea8565b9150614d6382614cfc565b604082019050919050565b60006020820190508181036000830152614d8781614d4b565b9050919050565b7f4552433732313a20617070726f76652063616c6c6572206973206e6f7420746f60008201527f6b656e206f776e6572206e6f7220617070726f76656420666f7220616c6c0000602082015250565b6000614dea603e83613ea8565b9150614df582614d8e565b604082019050919050565b60006020820190508181036000830152614e1981614ddd565b9050919050565b7f4552433732313a2063616c6c6572206973206e6f7420746f6b656e206f776e6560008201527f72206e6f7220617070726f766564000000000000000000000000000000000000602082015250565b6000614e7c602e83613ea8565b9150614e8782614e20565b604082019050919050565b60006020820190508181036000830152614eab81614e6f565b9050919050565b7f4e616d652063616e6e6f7420626520656d707479000000000000000000000000600082015250565b6000614ee8601483613ea8565b9150614ef382614eb2565b602082019050919050565b60006020820190508181036000830152614f1781614edb565b9050919050565b7f456d61696c2063616e6e6f7420626520656d7074790000000000000000000000600082015250565b6000614f54601583613ea8565b9150614f5f82614f1e565b602082019050919050565b60006020820190508181036000830152614f8381614f47565b9050919050565b60008190508160005260206000209050919050565b60006020601f8301049050919050565b600082821b905092915050565b600060088302614fec7fffffffffffffffffffffffffffffffffffffffffffffffffffffffffffffffff82614faf565b614ff68683614faf565b95508019841693508086168417925050509392505050565b6000819050919050565b600061503361502e61502984613f58565b61500e565b613f58565b9050919050565b6000819050919050565b61504d83615018565b6150616150598261503a565b848454614fbc565b825550505050565b600090565b615076615069565b615081818484615044565b505050565b5b818110156150a55761509a60008261506e565b600181019050615087565b5050565b601f8211156150ea576150bb81614f8a565b6150c484614f9f565b810160208510156150d3578190505b6150e76150df85614f9f565b830182615086565b50505b505050565b600082821c905092915050565b600061510d600019846008026150ef565b1980831691505092915050565b600061512683836150fc565b9150826002028217905092915050565b61513f82613e9d565b67ffffffffffffffff811115615158576151576140e0565b5b6151628254614ccb565b61516d8282856150a9565b600060209050601f8311600181146151a0576000841561518e578287015190505b615198858261511a565b865550615200565b601f1984166151ae86614f8a565b60005b828110156151d6578489015182556001820191506020850194506020810190506151b1565b868310156151f357848901516151ef601f8916826150fc565b8355505b6001600288020188555050505b505050505050565b7f4e487b7100000000000000000000000000000000000000000000000000000000600052603260045260246000fd5b7f4552433732313a20696e76616c696420746f6b656e2049440000000000000000600082015250565b600061526d601883613ea8565b915061527882615237565b602082019050919050565b6000602082019050818103600083015261529c81615260565b9050919050565b7f4e487b7100000000000000000000000000000000000000000000000000000000600052601160045260246000fd5b60006152dd82613f58565b91507fffffffffffffffffffffffffffffffffffffffffffffffffffffffffffffffff820361530f5761530e6152a3565b5b600182019050919050565b7f4552433732313a2061646472657373207a65726f206973206e6f74206120766160008201527f6c6964206f776e65720000000000000000000000000000000000000000000000602082015250565b6000615376602983613ea8565b91506153818261531a565b604082019050919050565b600060208201905081810360008301526153a581615369565b9050919050565b7f446966666572656e74204d65726368616e740000000000000000000000000000600082015250565b60006153e2601283613ea8565b91506153ed826153ac565b602082019050919050565b60006020820190508181036000830152615411816153d5565b9050919050565b7f4974656d20646f6573206e6f7420657869737400000000000000000000000000600082015250565b600061544e601383613ea8565b915061545982615418565b602082019050919050565b6000602082019050818103600083015261547d81615441565b9050919050565b600061548f826142f9565b915061549a836142f9565b92508163ffffffff04831182151516156154b7576154b66152a3565b5b828202905092915050565b60006154cd826142f9565b91506154d8836142f9565b92508263ffffffff038211156154f1576154f06152a3565b5b828201905092915050565b6000615507826142f9565b9150615512836142f9565b925082821015615525576155246152a3565b5b828203905092915050565b7f4e487b7100000000000000000000000000000000000000000000000000000000600052601260045260246000fd5b600061556a826142f9565b9150615575836142f9565b92508261558557615584615530565b5b828204905092915050565b600081905092915050565b60006155a682613e9d565b6155b08185615590565b93506155c0818560208601613eb9565b80840191505092915050565b60006155d8828561559b565b91506155e4828461559b565b91508190509392505050565b7f4f6e6c79204d65726368616e74732063616e20616464206974656d7300000000600082015250565b6000615626601c83613ea8565b9150615631826155f0565b602082019050919050565b6000602082019050818103600083015261565581615619565b9050919050565b7f4974656d206e616d652063616e6e6f7420626520656d70747900000000000000600082015250565b6000615692601983613ea8565b915061569d8261565c565b602082019050919050565b600060208201905081810360008301526156c181615685565b9050919050565b7f4974656d206465736372697074696f6e2063616e6e6f7420626520656d707479600082015250565b60006156fe602083613ea8565b9150615709826156c8565b602082019050919050565b6000602082019050818103600083015261572d816156f1565b9050919050565b7f4552433732313a207472616e736665722066726f6d20696e636f72726563742060008201527f6f776e6572000000000000000000000000000000000000000000000000000000602082015250565b6000615790602583613ea8565b915061579b82615734565b604082019050919050565b600060208201905081810360008301526157bf81615783565b9050919050565b7f4552433732313a207472616e7366657220746f20746865207a65726f2061646460008201527f7265737300000000000000000000000000000000000000000000000000000000602082015250565b6000615822602483613ea8565b915061582d826157c6565b604082019050919050565b6000602082019050818103600083015261585181615815565b9050919050565b600061586382613f58565b915061586e83613f58565b925082821015615881576158806152a3565b5b828203905092915050565b600061589782613f58565b91506158a283613f58565b9250827fffffffffffffffffffffffffffffffffffffffffffffffffffffffffffffffff038211156158d7576158d66152a3565b5b828201905092915050565b50565b60006158f2600083615590565b91506158fd826158e2565b600082019050919050565b6000615913826158e5565b9150819050919050565b6000615929828461559b565b915081905092915050565b7f53657269616c206e756d6265722063616e6e6f7420626520656d707479000000600082015250565b600061596a601d83613ea8565b915061597582615934565b602082019050919050565b600060208201905081810360008301526159998161595d565b9050919050565b7f4552433732313a20617070726f766520746f2063616c6c657200000000000000600082015250565b60006159d6601983613ea8565b91506159e1826159a0565b602082019050919050565b60006020820190508181036000830152615a05816159c9565b9050919050565b7f4552433732313a207472616e7366657220746f206e6f6e20455243373231526560008201527f63656976657220696d706c656d656e7465720000000000000000000000000000602082015250565b6000615a68603283613ea8565b9150615a7382615a0c565b604082019050919050565b60006020820190508181036000830152615a9781615a5b565b9050919050565b6000615aa982613f58565b9150615ab483613f58565b925082615ac457615ac3615530565b5b828204905092915050565b6000615ada82613f58565b9150615ae583613f58565b925082615af557615af4615530565b5b828206905092915050565b600081519050919050565b600082825260208201905092915050565b6000615b2782615b00565b615b318185615b0b565b9350615b41818560208601613eb9565b615b4a81613eec565b840191505092915050565b6000608082019050615b6a6000830187613fed565b615b776020830186613fed565b615b84604083018561454b565b8181036060830152615b968184615b1c565b905095945050505050565b600081519050615bb081613e0e565b92915050565b600060208284031215615bcc57615bcb613dd8565b5b6000615bda84828501615ba1565b91505092915050565b7f4552433732313a206d696e7420746f20746865207a65726f2061646472657373600082015250565b6000615c19602083613ea8565b9150615c2482615be3565b602082019050919050565b60006020820190508181036000830152615c4881615c0c565b9050919050565b7f4552433732313a20746f6b656e20616c7265616479206d696e74656400000000600082015250565b6000615c85601c83613ea8565b9150615c9082615c4f565b602082019050919050565b60006020820190508181036000830152615cb481615c78565b905091905056fea26469706673582212208e93895a06f1e0ac3976546998db89eb9d2e22d42f35ef1add410a912ea273d564736f6c634300080f0033",
  "linkReferences": {},
  "deployedLinkReferences": {}
}